:020000040800F2
:10000000C0090020C9000008EF0000087B070008B5
:1000100000000000000000000000000000000000E0
:10002000000000000000000000000000F3000008D5
:100030000000000000000000F50000087D08000836
:10004000F9000008F9000008F9000008F9000008AC
:10005000F9000008F9000008F9000008F90000089C
:1000600000000000F9000008F9000008F90000088D
:10007000F9000008F9000008F9000008F90000087C
:10008000F90000080000000000000000F90000086E
:1000900000000000F9000008F9000008F90000085D
:1000A00000000000F900000800000000F90000084E
:1000B0000448854600F0C6F900F052F800480047B1
:1000C00035270008C00900200C4880F308880C4838
:1000D0000168090E0B4A914205D10B480B4901609A
:1000E0000B480C4901600C4880470C480047FEE76C
:1000F000FEE7FEE7FEE7FEE7FEE70000C00900209E
:10010000040000001F000000181002400100000061
:10011000000001400000000081080008B100000854
:1001200030B50B46014600202022012409E00D468F
:10013000D5409D4205D31D469540491B2546954017
:1001400040191546521E002DF1DC30BD0321001D63
:10015000401E037812021A43491EF9D51046704713
:1001600070B5054C054D03E0206800198047241D3B
:10017000AC42F9D170BD0000803B0008843B000810
:10018000F8B502464A40D40F42004B0052085B08C3
:100190009A4202D20246084611464A0023D0C30DB5
:1001A0004A00DDB2120EAD1A202D35DA49020126C1
:1001B000490AF6058A19002C00D0524220214F1B13
:1001C0001146B9402A411018C20D9A4221D0002C84
:1001D00017D0012D08DCDA05801AD20F8019D2075A
:1001E000DBB200F0F5F8F8BDDA05801A0123400013
:1001F0001B06C01880185A428018CA0F10434900C5
:1002000007E04908C2071143DA05801A801940083F
:10021000801800F0D5F8F8BD61000122511A001BCA
:10022000F7E70122D2075140AAE70122D207504046
:10023000A6E7024670B54A40D30FDB0740002DD039
:100240004A002AD0010E140E000212020919400AB7
:10025000520A8418E50104465443000A120A2E0487
:100260005043A4194219200CC543AA18120C0125A9
:10027000AD03521C521912047F39240400D0521CC1
:10028000104301D44000491EC2B20C06C009201818
:10029000401C4008802A02D003E0002070BD4008C6
:1002A0004000002900DA0020184370BD70B50246F6
:1002B0004A40D50F40004A00ED0740085208002888
:1002C00014D0002A12D0C40DD30D41020120C00564
:1002D0005202490A520AE41A091812187D3491424E
:1002E00001D3641C00E04900002C01DA002070BD3D
:1002F0000023914201D3891A034340084900002892
:10030000F7D100290AD0914202D10121C90705E0A5
:10031000914201D2012101E00121C943E005C01849
:10032000401900F04DF870BD420005D04200120E99
:1003300052428A4201DB00207047C9050818704705
:10034000C217C10F504010B54018CA0796230021AC
:1003500000F03EF810BD10B500229623114600F0C3
:1003600037F810BDC20F410040020123400ADB05EF
:10037000D207090EC0187F2901DA0020704796299C
:1003800003DC9623591AC84001E096398840002AB8
:10039000F4D04042704700000122D207002800DB61
:1003A000101A002900DB511A814270470122D2073E
:1003B000002800DB101A002900DB511A8842704720
:1003C000002904DA401C490001D140084000704770
:1003D00070B40024050C05D11024000402D10029BA
:1003E00021D01124050E01D100020834050F01D1DE
:1003F0000001241D850F01D18000A41C002801DB11
:100400004000641C002908D020252E1B0D46F54015
:10041000A14000D001212943084301061B1B000A0B
:10042000DB1D02D5002070BC7047DB051818801852
:100430000029F8DA401C4900F5D170BC40084000A2
:1004400070470000064C0125064E05E0E36807CC26
:100450002B430C3C98471034B442F7D3FFF72CFEE3
:10046000603B0008803B000870B58C180578401C84
:100470006B075B0F01D10378401C2A1106D102786B
:10048000401C03E006780E70401C491C5B1EF9D12D
:100490002B0705D40023521E0DD40B70491CFAE71C
:1004A0000378401CCB1A921C03E01D780D70491C88
:1004B0005B1C521EF9D5A142D8D3002070BD836ABF
:1004C0000B438362426170470029816801D0012299
:1004D00000E002221143816070470029C16802D008
:1004E0000122114301E049084900C1607047C26818
:1004F00002239A43C260C2680A43C260704782689E
:1005000000210123DB071A4382600F231B0382684B
:10051000491CD20FD207994201D0002AF7D1816835
:10052000002901DB006C70470020704730B5C268BD
:10053000084B8C681A400B680D792343CC686D0317
:100540002C4323430C69496923430B431343C36082
:1005500030BD000003D2FFFF816804221143816097
:1005600070470021016001718160C16001614161DA
:10057000704700000122054992050028886801D0D3
:10058000104300E09043886070470000002701405E
:100590000029016802D00122114301E0014A114003
:1005A00001607047FEFF000030B503680C4A0C6A1A
:1005B00013408A684D6922430C692C4322438C699D
:1005C0002243CC6922434C6A22438C6A22431A4359
:1005D0000260CA6842600A6882604968C16030BDD2
:1005E0000F80FFFFF0B50B2706463F04384600F0AA
:1005F00067F804280FD1084C2069022528432061A0
:1006000066612069402108432061384600F058F8AF
:100610002169A9432161F0BD00200240084904205E
:10062000CA68D20701D001207047CA68D20601D536
:1006300002207047C9684907FBD5032070470000B6
:100640000020024002480169802211430161704785
:1006500000200240F8B5064600200B273F0400901A
:100660000D46384600F02CF8042815D10B4C2069B3
:100670000121084320613580384600F021F8042824
:1006800006D1B61C290C00963180384600F018F8C7
:100690002169490849002161F8BD0000002002409D
:1006A00004480169090603D50349416003494160D3
:1006B000704700000020024023016745AB89EFCD61
:1006C00000B50346FFF7AAFF02E0FFF7A7FF5B1E96
:1006D000012803D0002B00D1052000BD002BF4D150
:1006E000FAE7F0B50022032501230C6893401C4073
:1006F0009C422AD10C79012C01D0022C12D187689E
:1007000054002E46A640B74387604E79A6408468C1
:100710002643866084889C43848084888B799340B8
:100720001C438480066853002C469C40A643066008
:100730000E7907689E403E430660C668A643C660C1
:10074000CC799C40C3681C43C460521C102ACBD394
:10075000F0BD4B07DB0E9A40C90810B58900081898
:10076000016A0F249C40A1430162016A11430162A6
:1007700010BD0185704781617047052001F0C0F907
:1007800070B5FF2500210446AD05C943FFF7CCFD38
:1007900006460F4960100C1A21463046FFF749FD06
:1007A0002146FFF746FD2946FFF73FFD2146FFF7AB
:1007B00040FD044601463046FFF73BFD2146FFF76A
:1007C00038FD2946FFF731FD2146FFF732FD70BDA8
:1007D000DF59375F044A0029516901D0014300E025
:1007E000814351617047000000100240044A002913
:1007F000D16901D0014300E08143D161704700001D
:1008000000100240044A0029916901D0014300E030
:100810008143916170470000001002400CB5002038
:10082000009001901349112008601348416841600D
:100830004168416041687B22D20391434160416835
:100840000522D204114341600168012212061143BE
:10085000016001688901FCD541688908890041600F
:10086000416802221143416041680907890F02294A
:10087000FAD10CBD00200240001002407047000079
:1008800010B5144801680122114301604168124A01
:10089000114041600168114A114001600168012264
:1008A00092049143016041683F22120491434160E8
:1008B000C16A09090901C162016BFF2254329143E7
:1008C0000163416B49084900416300218160FFF7E2
:1008D000A5FF10BD001002400CB8FF08FFFFF6FE98
:1008E0000029018802D00122114301E04908490092
:1008F0000180704740300029818803D00122D20353
:10090000114301E04904490C8180704770B5028CA5
:10091000520852000284048C8288038B7025AB43FA
:100920009B080D889B001D4302239C438E894B88A6
:100930002643104C3343A04208D00F4CA04205D0B0
:100940000E4CA04202D00E4CA0420DD10824A3436D
:10095000CC891C4304239C438B882343094C2240AD
:100960000C8A14434A8A2243828005838968416342
:10097000038470BD002C0140004001400044014050
:1009800000480140FFFC000070B5028C10239A4320
:100990000284048C8288038B1A4D2B400D782D061F
:1009A0002D0C1D4320239C438B891B051E0C4B885B
:1009B00026431B051B0C144C3343A04202D0134E9C
:1009C000B04219D1124E32400E8AB604360C324370
:1009D000A04211D18024A343CC892405240C1C43BC
:1009E00040239C438B881B051B0C2343094C22404E
:1009F0004C8AA404240C2243828005838968816385
:100A0000038470BDFF8C0000002C014000400140B9
:100A1000FFFB0000FFF7000030B5028C124B1A40BC
:100A20000284058C8288838B104C23400C7824062A
:100A3000240C1C430E4B1D400B7B1B071B0C2B4334
:100A40008D782D072D0C1D430A4B984205D10A4B7A
:100A500013400A8A9205120C1A43828084838968A3
:100A60000164058430BD0000FFEF0000FF8C000032
:100A7000FFDF0000002C0140FFBF000010B502881E
:100A8000144B984206D00124A407A04202D0124C75
:100A9000A04203D17024A2434C8822430F4CA042B1
:100AA00003D00F4C22400C89224302804A68C26264
:100AB0000A880285984208D00A4A904205D00A4A1C
:100AC000904202D0094A904201D1897A01860121DF
:100AD000818210BD002C0140000400400010004045
:100AE000FFFC00000040014000440140004801407C
:100AF0000146034888600348C86008467047000004
:100B00000AD7A33C9075D63D002101607047FFB520
:100B100081B01C4617460E0007D0019D02E0284612
:100B2000B047ED192046641EF9D2019805B0F0BD1A
:100B300002E008C8121F08C1002AFAD170477047A6
:100B4000002001E001C1121F002AFBD17047000004
:100B500010B50323102207490748FFF7D8FF0748BD
:100B60000021016004480323082205493030FFF7C3
:100B7000CEFF10BDF10A00085C040020F800002040
:100B8000090B000870B5174D064668680024002858
:100B900001D102F0C9FB2868002801D102F07CFCD9
:100BA0000722012302F098FB00F01EF8002803D072
:100BB000184690402043C4B202F0AAFB521EF1D561
:100BC000002E02D002F0B0FB01E002F0BFFB02F009
:100BD00083FB02F09DFB6868002801D002F0B6FBA1
:100BE000204670BD1C0200200920C006008A012199
:100BF000890208407047000010B505484068002889
:100C000001D102F091FB02F067FB02F09FFB10BDE7
:100C10001C02002070B5104E0546B068012801D1B5
:100C200002F076FB072428462041C00702D002F0DC
:100C30007BFB01E002F08AFB02F05AFB641EF2D556
:100C40007068002801D102F06FFB02F045FB02F052
:100C50005FFB384670BD00001C02002010B5074A3B
:100C60009068002801D102F037FB5068012803D1B9
:100C7000FFF7BAFF02F06AFB10BD00001C02002063
:100C800010B5084C6068012804D1A068002806D17E
:100C900002F05CFBA068002801D102F01DFB02F00D
:100CA00043FB10BD1C020020F8B5154E4520000680
:100CB00037460025183FB06002F038FC0024A00041
:100CC000395880190F4A01F0A4FC641C032CF6DB90
:100CD00001F022FAFF20F5306D1C8542ECDB452146
:100CE0000906B068FFF79DFA074D0024B060A00028
:100CF0008019294601F07AFC641C032CF7DBF8BD4F
:100D00001C0400201F856B3F0000FA4370B592B0B1
:100D1000202503206946069508770024CC77092012
:100D200006A9C006FFF7DDFC01214802FFF76AFDB6
:100D300001210846FFF74EFD2A4806902A480790F1
:100D40000220099080200B9040000C9008948000B5
:100D50000E950D900A94C000244D0F9006A9109492
:100D60002846FFF721FC1F4E0221403E3046FFF788
:100D7000BEFB01213046FFF7B0FB6846FFF7F1FBF1
:100D8000012069460094087104200590029404949F
:100D90003046FFF7CBFB0121072249043046FFF71D
:100DA0008EFB072220213046FFF789FB0120FFF749
:100DB000E1FB3046FFF7A3FB01213046FFF784FB40
:100DC0003046FFF7C9FB01212846FFF7E1FB084841
:100DD0000088FFF7C0FA0749FFF72BFA024948607D
:100DE00012B070BD402401401002002008000240F3
:100DF000BAF7FF1F62DB963F10B50B49002803D0FE
:100E0000012808D0002010BD0888FFF7A4FA074980
:100E1000FFF70FFA10BD4888FFF79DFA0146024818
:100E20004068FFF743FA10BD100200203FC8B23AF5
:100E3000F8B5840013481349183007590968384633
:100E4000FFF7F7F90F4D06461035284610300159C7
:100E50003846FFF7E6F9294608390968FFF7E9F946
:100E600009490968FFF7E5F93146FFF789F9285183
:100E70002846103007516019044901F0B7FB285982
:100E8000F8BD00000001002044010020000048449B
:100E9000F8B505460C46480000D1294C0121002632
:100EA000C9078D4203D94C404D408126F605002CE0
:100EB00009DC204648402C4605460121890730467A
:100EC000FFF75EF9064621462846FFF76FFA10D86D
:100ED00021462846FFF7A5F9074621462846FFF791
:100EE0004FF904467F213D46C9053046FFF748F9D2
:100EF000064621462846FFF7D9F904461149FFF76F
:100F000098F91149FFF73CF92146FFF792F90F498B
:100F1000FFF736F92146FFF78CF904460C493046B5
:100F2000FFF787F92146FFF72BF90A49884202DDCE
:100F30000949FFF776F90949FFF77BF9F8BD000089
:100F4000567C0A2A4BC887BD7EAE36BE42DA833F46
:100F5000DB0F493FDB0F4940DB0FC940E12E654203
:100F600070B5184CA06B002804D00025012809D0CA
:100F7000A56370BD0120606202F0FAF9A06B401C0D
:100F8000A06370BD172002F084FDC00608D58F2134
:100F9000002002F0A3FDA563656201F043FE70BD71
:100FA00001F0BAF8A16C401A07498842F7D9E1204C
:100FB00002F04EFD8F21002002F090FDA5636562D6
:100FC00070BD00009001002010270000F8B5294DE9
:100FD000294F28683968294E084303D12848807B67
:100FE00000283CD001F098F804467068002804D02E
:100FF0002968002903D0234D07E07460F8BD3A68E2
:10100000002A01D0204D00E0204D214A201A9042B4
:1010100001D80029F2D0B068002807D11D488442C9
:10102000ECD901F099F8B0600028E7D029462046B5
:10103000FFF776F86808814216D93068164900280B
:10104000164802D0FFF797FB01E0FFF792FB3068EC
:10105000002802D000203060F8BD0120FBE700200E
:101060007060B0680028F7D00B490C48FFF781FB8F
:10107000F8BD000030000020B80100206C00002006
:1010800004030020400D0300801A0600C027090059
:1010900040420F0080969800004000000000004889
:1010A00070B5002506462C46A00030580146FFF7D3
:1010B000C0F82946FFF764F8641CE4B20546032C27
:1010C000F2D3FFF75DFB01467F20C005FFF7EEF886
:1010D00070BD0000F8B5164F0C227968134E5143CD
:1010E000144A8A1839688C001159002802D0124E0F
:1010F000491C00E0491E1151BD6831462859FFF7CF
:1011000098F828513C68002C04D131466868FFF7F4
:1011100090F8686078680C21484306494018A1009F
:101120004058002800DA4042F8BD00002EBA683F5F
:1011300028010020C8040020CDCC8C3F30B500220F
:1011400007239C1A6418203C855CE47FA54201D0EB
:10115000002030BD521C072AF3DB012030BD000007
:10116000FEB5072002F095FC0007400F0026072877
:1011700001D0022000E0304601246A4D002862D0F0
:10118000E86800281DD000F0C7FF07460F21664819
:1011900002F069FC00F014FC002853D0286C401CBD
:1011A00028646868002801D0FFF7DAFEEE622E633B
:1011B0002869EF642F65AE62A865686A00283FD091
:1011C00040E00F21584802F04EFC574B1868A42805
:1011D00001D0A32837D1A32802D154486C602862DB
:1011E0005048197E3C300170197F4170198C817014
:1011F000998CC1704E494B4F8868C9680090012096
:1012000001915C378100595C6A4611543A18203AC2
:10121000401CD1770628F5DB0621684602F0F6FB74
:101220003020694608700621684602F0EFFB3D4811
:1012300029693C30415C252002F050FCEC6002E062
:1012400001F0F0FC6C61686A002801D0FFF788FEAD
:1012500000F062FF0746E86C391A286A82007D2098
:10126000C000101881420BD9E868002808D0EF644C
:10127000286B002801D1A86D286101F0D3FC2C63F4
:10128000696A286B084319D1E86A0090052815D2CD
:10129000E868002812D0E86C7D21381AC90088421D
:1012A0000CD9296AFEF73CFF01460098401C814298
:1012B00004D301F0B7FCE86A401CE862286D391AD3
:1012C0001C48814206D91C48AC62066046608660B4
:1012D000C66002E0A86A002803D0E869002802D0AE
:1012E00011E0EC610FE0A8691449381A88420AD964
:1012F0000C48EE6006216D30EC6102F087FB0021A6
:10130000052002F0EBFB00F007FF696D411A094868
:10131000814205D9286C2E64686400F0FDFE686582
:10132000FEBD000090010020700500208813000021
:10133000503B000840420F00D4030020C0E1E4000D
:1013400000B502F06FF800BDF0B57F2587B0ED0560
:10135000F7480195807B002802D13F2000060190CC
:1013600000263446F348B700C0590199FEF761FFE3
:10137000F14B4200F1495208D8518A4201DCDC515C
:101380000FE00122D207904203D82A46002300959D
:1013900003E0EB4A0023EB49009201F09FFBE64992
:1013A000C851761C032EDDDB01F0A6FDE048E64EB9
:1013B000C07B002803D0E5480068002860D0DE4FDD
:1013C000E3493868FEF735FFE249FEF732FFE249AC
:1013D0000860DF497868FEF72CFFDE49FEF729FF39
:1013E000DD494860DA49B868FEF723FFD949FEF7BE
:1013F00020FFD94900278860D348BE008159D648CC
:101400008059FEF70EFFCC497F1C0C398851032F01
:10141000F2DB01F07FFE002001F024FC012001F04E
:1014200021FC022001F01EFCC148CC4B0278CC48C4
:10143000CC490126002A74D0BE4AD768CA4A9742CE
:1014400002DD0A68002A6DD01A68012AFBD0066006
:101450000E60B74AC54FD27B002A7CD0BE610068BF
:10146000002879D0B8690028B248C06875D0BE4954
:101470007861884203DDBE48016800296ED0F7E03C
:101480000021AD4802F0D8F9AB48B1498068FEF7B9
:10149000D0FEB049FEF7CDFEB64F039078680399B1
:1014A000FEF7C7FE009001213868C907484003993C
:1014B000FEF7BFFE0190B8680399FEF7BAFE0290EE
:1014C000AD480590AD480490AD4806909848C07B63
:1014D00000287DD0AB4903C94700490049087F086F
:1014E00038460391FEF762FF00D9039F04993846FE
:1014F000FEF752FF05D838460499FEF7D7FE049050
:1015000000E004958C480699006847007F0838463B
:10151000FEF742FF07D838460699FEF7C7FE074692
:1015200002E07FE08AE02F4604990598FEF781FEED
:10153000039095483946FEF77CFE0399FEF720FE9E
:1015400007468C4881680120C007814210D97A483B
:101550007F49006803E075E076E07AE087E0FEF717
:1015600068FE7C49FEF765FE3168FEF75AFE26E00C
:1015700086480168864801606F4875490068FEF733
:1015800058FE7449FEF755FE3168FEF74AFE3946AB
:10159000FEF74FFE039039462846FEF742FE074607
:1015A0000020FFF745FC0099FEF7EAFD3168FEF7E1
:1015B00038FE3946FEF73DFE0399FEF7E1FD5E4F2A
:1015C00063490C3F38605C484068FEF732FE00E03B
:1015D00008E06049FEF72DFE7168FEF722FE786094
:1015E000B16818E000276948BE00815968488151F8
:1015F0003846FFF71DFC69468959FEF7C1FD52497F
:101600008959FEF70EFE4C497F1C0C398851012F79
:10161000E9DD4D4881680298FEF703FE46490C3922
:101620008860F6E65B4A04601268012A00D010E781
:10163000594A1268012AFAD11C600AE7574A046025
:10164000166006E7BC610AE749487C6104600C60EB
:101650000EE05349884203DA45487C61046007E0A4
:10166000FEF7DFFD4F49FEF7E4FD78614048066074
:101670004D480068002803D14C487969814223DA3B
:101680007868002807D000F047FD7968401A48497B
:10169000884200D97C600025E8B2002101F0DCFC22
:1016A0006D1C032DF8DD434D30482A4600210830DB
:1016B00000F0AFFF2D482A4600210C3000F0A9FFB2
:1016C0003E60FC6107B0F0BD0020386000F024FDF2
:1016D0007860786902F04EF97969FEF751FD0121D1
:1016E000C9077861884202D90020786102E0A842E7
:1016F00000DD7D6130480068002802D02F48C068B6
:1017000078610B48C07B00285FD01A487C698168EB
:101710003F200006814200DC01462046FEF7C6FD60
:10172000274978618C424DDA88424BDD79614CE083
:1017300004030020D4030020940200200AD7233C95
:10174000000080BF0AD723BC10040020D400002072
:101750000000484435FA8E3C340500205C0000202F
:101760006400002068000020CDCCCC3D00000020AB
:1017700060000020C80000209A99993E00005C4259
:101780003333733F400400203333333F34040020AD
:101790001801002034000020A4010020380000209F
:1017A000CDCC4C3D9932873FB80100206F12833A6F
:1017B00040420F00EC51383FDC0000204C04002078
:1017C0006666663FA84200DD7D61734C73482668FB
:1017D000406931460590FEF724FD0490676839465C
:1017E000FEF71FFDA4682146FEF7CAFC03903146B0
:1017F0000598FEF7C5FC06463946FEF712FD214660
:10180000FEF70FFD019039460498FEF7B9FC21461A
:10181000FEF707FD029030463946FEF7B1FC21463F
:10182000FEF7AEFC00246E460090A700F05921465A
:1018300001F0BCF9F051214601F07EF9641CF05131
:10184000032CF2DD0020564F04460490A6006846A3
:1018500080590499FEF7AAFD02D268468059049087
:10186000684680593946FEF797FD01D26846875988
:10187000641C042CEADB7F21C9050498FEF7D1FC27
:101880003F252D06A84200DD2846444CA168FEF7FE
:101890008DFD04D24349A068FEF772FC03E0424983
:1018A000A068FEF7BEFCBF263606A060B74200D98E
:1018B00037463846E168FEF76FFD04D23949E068E3
:1018C000FEF7AFFC03E03849E068FEF759FCE06042
:1018D000B04201D9E66003E03449884200DDE160AE
:1018E000E068002800DD32483049FEF7A2FC0746D8
:1018F000A068A84201DDA56003E02E49884200D916
:10190000A160264801268068F607B04200D92A481F
:101910002649FEF78EFC002801DCB7420ED9394675
:10192000FEF72EFC00246F460490A5007859049918
:10193000FEF777FC641C7851042CF6DB0020174F6F
:1019400005466E46F861AC0031591C48814201DB06
:10195000084600E0305101F039F90146E8B201F0E3
:101960007BFB30590121C907884202D90020305140
:1019700004E07F21C905884200DD31513159F86901
:10198000FEF7FEFB6D1CF861032DDCDD0121C94370
:10199000FEF7CAFCF86195E628050020000000204B
:1019A0006F12833A0AD7A33B0AD7233CCDCCCC3D58
:1019B00017B7D138CDCCCCBD17B7D1B8CDCC4C3DB5
:1019C000F8B5404D2868A5287AD100210846820044
:1019D000AA58401C51180E28F9DBC8B2A96B8842DE
:1019E0006ED13848103001F02DF9374E306035484F
:1019F000183001F027F970603248283001F022F9E0
:101A0000B060288C696A8007800D4018FEF798FC4A
:101A10002E49FEF70EFCF060297B2D4C0806C00F06
:101A2000A071A868C206D20FE2718206D20F22729C
:101A30008A06D20F4907E272C90FA1720107C90FC6
:101A400021706968FA2921D0002161708107C90FCE
:101A5000C007A170C00FE070E07B1E4D0028306809
:101A6000294615D001F028FB30602946706801F046
:101A700023FB70603F210906B06801F01DFBB060D8
:101A8000002007460126144B144D0CE00121DCE731
:101A900001F012FB30602946706801F00DFB7060A8
:101AA0002946B068E9E71F542A5C215C8A4200D0CD
:101AB0001E542954401C0E28F5DB0120F8BDFFE719
:101AC0000020FBE770050020D4030020F7FF7F3AD9
:101AD000040300209A99193FF4030020E403002036
:101AE00010B50020FFF7F6FA10BD08B5C100081ABE
:101AF0000090411E009101D30846FAE708BD00009E
:101B000006460024E0B2002101F0A6FA641C032C72
:101B1000F8DD0B4DAF0000240CE0FF2000F054FD79
:101B20002846FFF7E2FFFF2000F03CFD2846FFF7C4
:101B3000DCFF641CB442F0DB3846FFF7D6FFEAE76F
:101B4000400D030010B50349FEF71AFB00F004F83E
:101B500010BD0000DB0FC93F70B50446134E144D95
:101B600003E03146FEF70CFB0446AC42F9D8114DB8
:101B7000AC4204DD3146FEF754FB0446F8E7012091
:101B8000C0070D490D4D8442204605D9FEF751FB93
:101B90002946FEF7F5FA04E0FEF74BFB2946FEF76F
:101BA00044FB2146FEF745FB70BD0000DB0FC9403A
:101BB000DB0F49C0DB0F49407B81CF3E83F9A23F59
:101BC000FEB500273D460024681CFEF7B9FB0190D6
:101BD0000E49A8000E58601CFEF7B2FB0090A10051
:101BE00071580198FEF725FB0099FEF722FB084982
:101BF000FEF71FFB3946FEF7C3FA641C0746032CA9
:101C0000E9DB6D1C032DDEDBFEBD0000840100203E
:101C10008D976E3F10B5FFF7D3FF0149086010BDE7
:101C200078000020F8B50020012400F001F9384DBB
:101C3000A8426BD1FF2000F0FBF8A84266D12046F5
:101C4000022500F0FDF8334948600968FEF7A4FB5F
:101C500011D100260024B70028466D1C00F0F0F8D2
:101C60002D49A200C959641C8850032CF4DB761C52
:101C7000032EEFDB00E00B2528466D1C00F0E0F89A
:101C8000264C206028466D1C00F0DAF8606028467B
:101C900000F0D6F8A060342000F0CAF80022034615
:101CA0001146CC0018462041C0B27F2800D901223D
:101CB000491C0429F5DB002A28D1194901200860B4
:101CC00018490860322000F0B3F8174C2071322018
:101CD00000F0AEF81549000A0860332000F0A8F8BB
:101CE00002460021CB00104618416054491C0429CB
:101CF000F8DB342000F09CF80D4A03460021CC00AC
:101D0000184620415054491C0429F8DBF8BD000056
:101D10000100AA1278000020840100201C04002089
:101D20000C02002098010020EC010020940100200A
:101D3000CC010020F8B500F087F800F067F800202B
:101D400001242A4901F074FE294920460225096828
:101D500000F07EF800260024B7002648A100C059F4
:101D6000415828466D1C00F073F8641C032CF4DB0A
:101D7000761C032EEFDB204C28466D1C216800F0FA
:101D800067F86E1C2846616800F062F83046A1686A
:101D900000F05EF81948006800281FD01948184C58
:101DA0000068217900020143322001F041FE204603
:101DB000FEF7CCF90102E078090A0006014333205E
:101DC00001F036FE1048FEF7C1F901020E48090A7B
:101DD000C07800060143342001F02AFE0349FF20A9
:101DE00001F026FE00F020F8F8BD00000100AA1264
:101DF00078000020840100201C0400200C02002038
:101E0000EC01002094010020CC01002010B5054811
:101E1000FEF7E8FB042803D0FEF714FC012010BDF8
:101E2000002010BD007C000810B5FEF70BFC10BDB3
:101E3000024980004018006870470000007C0008DC
:101E400000B5FFF7F5FF00BD10B5FEF729FC10BD8A
:101E500010B501F0EDFD10BD30B52F4C2178814259
:101E600058D006216218203AD27F6254491E0129B7
:101E7000F8DA207029492848FFF760F97F25002803
:101E800002D06570032030BD24492348C91DFFF7E7
:101E900055F9002802D06570042030BD1F491E4846
:101EA0000E31FFF74BF9002802D06570012030BDDC
:101EB0001A4919481531FFF741F9002802D0657019
:101EC000022030BD154914481C31FFF737F90028AE
:101ED00002D06570052030BD10490F482331FFF74F
:101EE0002DF9002802D06570062030BD0B490A4844
:101EF0002A31FFF723F9002802D06570072030BD92
:101F0000064905483131FFF719F9002802D06570FC
:101F1000082030BD002030BD94000020FE3A0008AB
:101F2000F8B500F077F804005FD00125324F012C9E
:101F30001ED1386800282FD0304805600020386056
:101F4000FFF7F8FEFFF76EFE002002460C26034660
:101F500073432B4E00219B198E00491C9A51032973
:101F6000FADB401C0328F1DB00F0D6F825490860B5
:101F7000254E022C15D02549042C1FD0032C21D02E
:101F8000072C00DB3D60052C21D0062C22D0072C2D
:101F90002CD0082C2DD020E000F0EEF8FEF784FEC7
:101FA000CEE71B490868002806D0002008600221FF
:101FB000081A30603D6013E00120F7E70F480D710B
:101FC00005600AE00D4805600020087105E000F09A
:101FD0000DFE01E000F0FCFD30603868002804D000
:101FE0003068002801D105480560F8BD00F074FA9A
:101FF000F2E7FFF775FDEFE78000002038000020D2
:10200000C8040020580000203C00002004030020E9
:102010000C02002070B53748374C0068002864D0A7
:10202000364B37481A685100490881420BDA9D68DF
:102030006D006D08854206DA5D686D006D088542A9
:1020400001DA00202FE02F4DAA4202D89E68AE424E
:1020500006D95E6876007608864201DA012022E021
:10206000294EB24202DC9A68B24206DD5A6852003A
:102070005208824201DA022015E05A68AA4208D9C1
:10208000814206DA9D686D006D08854201DA032001
:1020900009E0B24208DD814206DA99684900490840
:1020A000814201DA0420206000F036F806CC083CBA
:1020B000914200D0E060E268801A144A90420FD941
:1020C000002904D1124A904201D90C2005E0114A9E
:1020D000904204D97F2903D0FF20A06000E0A160D6
:1020E0006160A068FFF7B8FE70BD7F20A0606060EF
:1020F000002070BD0000002084000020D4030020D8
:10210000CDCC4C3E333333BF3333333FA086010055
:1021100060AE0A0020A1070000B501F05DFC00BD23
:102120001CB5232001214004FEF754FB0120694621
:10213000087100208871C8710320487104200924A7
:10214000E40600902046FEF7CCFA0821009169468B
:102150002046FEF7C6FA1CBD1CB501208003009086
:1021600001206946087100208871C8710920C006E5
:10217000FEF7B7FA01201CBDF0B591B0FFF7CCFF18
:102180000F9005460B900A9000208100574B0CAA37
:102190005B58401C53500328F7DB8CE00A980A95E3
:1021A000281A099001D1012009900622694643208E
:1021B00000F0B4F8009801990002401800B2FEF750
:1021C000BFF80790029803990002401800B2FEF78A
:1021D000B7F80690049805990002401800B2FEF77F
:1021E000AFF8434E0890307800F088F92046414916
:1021F000FDF796FF4048814201D9012100E000210E
:102200003068C207D20F914201D0401C306038487C
:1022100001780907090F00260160B4000CAF06A879
:1022200039590059FEF7C2F804D238593349FDF73D
:10223000A7FF385106A839590059FEF7ADF804D266
:1022400038592E49FDF7EDFF3851E0192C4900F0BF
:10225000CDF938592B4940004008FDF791FF014660
:1022600006AF385940004008FEF7A0F806D2FFF745
:1022700053FF0B901E48012101600BE00998FEF707
:102280006AF8214900F002FA024618483959201824
:1022900000F0BFF9761C032EBFDB7D24E400FFF7BE
:1022A0003BFF401BA04203D20A20FFF71EFCF6E7CB
:1022B000FFF732FF05460B982C1A1448844205D2CA
:1022C0000F981349281A884200D267E70B98291AF9
:1022D0000E48814207D20020044A01468300401C78
:1022E000D1500328FADB11B0F0BD00002804002013
:1022F000B000002024F40000127A0000CDCCCC3DC8
:10230000000048440000C8420024F44880841E00B5
:10231000C0E1E40010B501F07BF910BD13460A4698
:1023200010B50146682001F0B6F9012010BD10B5C6
:102330000146682001F096F910BD0A4610B5014625
:10234000682001F0CFF910BDF0B5494C494D87B078
:1023500021682868FDF765FF286061686868FDF7F7
:1023600060FF00240A27FF436860A600A859394689
:10237000FDF7DAFF641CA851032CF6DB3E4800246D
:10238000006804AF00903D48A60080590099FDF711
:1023900050FF641CB851032CF5DB394E04983468A7
:1023A0002146FDF746FFB168FDF73FFF0190019917
:1023B0000498FDF73EFF2146FDF7E2FE074601992E
:1023C0000598FDF736FF7168FDF7DAFE04462146F1
:1023D0000598FDF72EFF0199FDF727FFB060214614
:1023E0000698FDF726FF3946FDF71FFF3060069A75
:1023F00001461046FDF71DFF2146FDF7C1FE706046
:102400001C48FEF74DFE1F491F4A4118914222D237
:102410007F22D205014600241046FDF747FF0090B9
:10242000A700E959FDF705FF641CE851032C01DA08
:102430000098F5E710483F210906006800F038F9D8
:1024400007460024A000295880193A4600F0E1F818
:10245000641C032CF6DBB1683068FEF719FD0B4CE9
:102460002060B1687068FEF713FD606007B0F0BDD2
:102470001C0400200404002054000020100400204C
:10248000C8000020CCCCCCC0323373004004002004
:10249000F8B500250D4F01F049F80024A6000A21E7
:1024A000B859C943FDF740FF01460948094A3018A9
:1024B00000F0AFF8641C032CF0DB7D20C000FFF7B8
:1024C00014FB6D1C642DE6DBF8BD00000404002045
:1024D000C80000209A99593F10B50120FEF7FAFD77
:1024E00010BD0EB500226B461A805A8001911A81E8
:1024F0009A726946FEF7C2FA0EBD000070B5064634
:10250000FFF70AFE194C21692061451A3046FDF794
:1025100022FF1749FDF78DFE064601212046890757
:102520000C3000F063F82846FDF715FF05463046ED
:102530006168FDF776FE2946FDF77BFE0D49FDF744
:1025400078FEE168FDF71CFE0B49E060884205DD7E
:10255000FF2000F039F87F20C00503E0FF2000F0E5
:1025600021F800206060002070BD00009C00002069
:102570008988883D6F12833A48E1FA3E70B50D466E
:102580000446FFF7C9FD2146FDF7CAFD6C4320094B
:10259000814203D90F2000F017F870BD0F2000F022
:1025A00001F870BD70B50446064DC00703D0042184
:1025B0002846FEF7E0F8A00703D508212846FEF7D5
:1025C000DAF870BD0000004870B50446064DC0073B
:1025D00003D004212846FEF7CCF8A00703D5082134
:1025E0002846FEF7C6F870BD0000004870B50446E6
:1025F0000120C0070D4645400E462068FDF7D6FE77
:1026000000D2266028462168FDF7D0FE00D2256062
:1026100070BD70B505460C467F2016461146C005B4
:10262000FDF7FFFD2146FDF704FE0446314628680C
:10263000FDF7FFFD2146FDF7A3FD286070BD0000FA
:10264000F3B5104E104F8C0083B031597869FDF707
:10265000F0FD019030460C38055938692946FDF7E0
:10266000E8FD0090B9690398FDF7E3FD0099FDF7D7
:1026700087FD0199FDF7D5FD314635510C390851DB
:1026800005B0F0BD640500202801002010B5FDF75D
:102690000DFE7F24E4052146FDF7C7FDA04201DDC4
:1026A000204610BD0121C9078842FAD9002010BD7B
:1026B00010B5FDF7BEFD7F24E4052146FDF7B5FD0D
:1026C000A04201DD204610BD0121C9078842FAD988
:1026D000002010BDF8B5164A09018C180546276878
:1026E000A1686068FDF74CFD0090E168FDF748FDCA
:1026F00001467F20C005FDF7D9FD0099FDF799FD42
:10270000064639462846FDF78CFD3146FDF791FD1A
:102710003946FDF735FD05467F203146C005FDF7FA
:1027200080FD0099FDF785FD256060602846F8BDB5
:102730005C0400201CB57D20C000FFF7D6F9FEF731
:10274000FFFDFFF7EDFCFF20FFF73EFF00F0EAFF83
:1027500001F02CF9CD48FFF7C8F9FFF7DBFD00F0D9
:1027600001FC0021084600F077FC0021012000F068
:1027700073FC0021032000F06FFC0021022000F018
:102780006BFC00F0A7FE00F095FE00282CD0FEF7B1
:10279000BDFABF4801218173FFF73CFAFFF742FA07
:1027A00000F00AFDBB4D00240020FEF725FB296840
:1027B000FDF7E6FC28607D20C000FFF796F9641C59
:1027C000402CF1DB0521C9432868FDF7ADFD2860E9
:1027D000FFF7D2FC00F09CFCFFF75AFEAE48006801
:1027E000002803D0072021E004201FE0FFF794FC1D
:1027F000A863FFF791FCA74C0546A06B281AFDF7CC
:10280000AAFD6063002802DC7F20C0056063A34945
:10281000FDF70FFDA2496063884201DD062005E057
:102820009D48A5630068142802DD0820FFF768F9B9
:1028300000F07CFEFEF788FDFFF786FD0020FEF726
:10284000DBFA944CA168FDF7F4FC06460120FEF784
:10285000D3FA0146934F20463A460830FFF7D9FE97
:1028600091483A46016820460C30FFF7D2FE2046D8
:102870008E4A24302168FFF7CCFE3A463146204686
:10288000FFF7C7FE0121C943606AFDF74DFD06460B
:1028900087492068FDF7CDFC3146FDF7C2FC00906A
:1028A000E4688448844255DD7A4FB86A0646FDF7ED
:1028B00047FD8049FDF7BDFC2146FDF7BAFC0099B4
:1028C000FDF75EFC7249B400703108510646386B62
:1028D000002808D0002030398200401C8E500C287F
:1028E000FADB002038636A48734910300059FDF75D
:1028F000A0FC01906648403001593046FDF791FC3C
:102900000199FDF73DFC624940310E5130390851C3
:102910000146FDF78EFC5E4E0146A036A019674ABF
:10292000FFF777FEB86A401CB8620C2812DB002063
:10293000B862306800240190A700F0590199FDF7B2
:102940002BFD04D2F05901905248611CC162641CF5
:102950000C2CF1DB4F4F3869002800D055485849FE
:10296000FDF70EFC0646F86AFDF7EAFC514C2146DD
:10297000FDF75FFCF968FDF75CFC0099FDF700FCD2
:102980003146FDF709FD03D34E493868884201DA24
:10299000012000E000203861F86AFDF7D1FC2146F3
:1029A000FDF747FCF968FDF744FC0099FDF7E8FBEB
:1029B000786045480068002801D0FFF7B1FA38690F
:1029C000002801D0082108E040480068002806D00F
:1029D0003F480068002804D00F213E481AE00C212F
:1029E00017E0012078612A48C678B869002814D019
:1029F000386A002802D1FFF78FFB3862FFF78CFBA3
:102A0000396A411A3348814202D90020B8613862DC
:102A100008211E48FFF7B2FD2BE0F86900281FD0FF
:102A2000FFF77AFB0446386A002809D13C62002E81
:102A300003D0FF20FFF7B6FD02E0FF20FFF7C4FD43
:102A4000386A211A2348814201D8386A04E0F869BB
:102A5000401EF861002038621F49201A884208D9B8
:102A6000002E03D0FF20FFF7AFFD02E0FF20FFF7AD
:102A700099FDFEF7ABFAFEF773FB7D24E400FFF748
:102A80004BFB401BA042FAD3B3E60000A086010036
:102A9000040300202000002018020020BD378635E6
:102AA0000AD7A33C492E7F3F1C00002029EA7F3F24
:102AB0000000A03FCDCCCC3D42F27C3F67B17F3FD0
:102AC000CDCC6C40CDCC2C40000000209C010020DF
:102AD000B801002020A10700E0930400FFB581B0F9
:102AE00007460E4610460A9DFDF79BFB0446284606
:102AF0000499FDF796FB054631463846FDF791FBF4
:102B00002946FDF796FB2146FDF7D0FB0499FDF71A
:102B100037FB05B0F0BD000010B506490868002875
:102B200007D000200860091D08710920C006FDF7C4
:102B3000D8FD10BD30020020F3B50D011A4E022160
:102B4000AC1983B0C943E068FDF7EEFB0290A768BB
:102B50000121C9433846FDF7E7FB01900121705977
:102B6000C943FDF7E1FB02210090C9430398FDF73B
:102B7000DBFB0099FDF704FB0199FDF752FB02997D
:102B8000FDF74FFB3F210906FDF753FB0146E760C8
:102B90006068A06070596060039870510398FDF7F9
:102BA000EFFA05B0F0BD00004802002070B5034602
:102BB0008C00044D044A60191946FFF72AFD285974
:102BC00070BD0000A4020020B9332B3F7047000005
:102BD00005490868022804D001DA02200860401C78
:102BE00070470020FAE70000280100200C494868DF
:102BF000002804D0012807D002280AD10BE0084899
:102C000038308860012003E00548443088600220A5
:102C10004860401C704702482C3088600020F7E76D
:102C20002801002010B50649087C401C8007800F51
:102C300008613C31095C252000F050FF10BD000008
:102C40009001002010B5416800788007800DFF38A2
:102C5000FF3802380818FDF773FB0821C943FDF758
:102C600063FB10BDF0B506469748B40000688FB00E
:102C7000002805D0954D96492859FDF7DAFA2851D4
:102C8000944F022E12DA914918310859C207401C9C
:102C9000D20F0851002A09D1084630300059314678
:102CA00000F0AAFD014689480C3001518A480025F0
:102CB000015986483C300059FDF76EFB03D1385965
:102CC000002800DD0125844801210059C90748403A
:102CD0007E493C310959FDF75FFB05D13959012087
:102CE000C007814200D90125022E0BDA77480C304B
:102CF00001593C300059FDF794FA400077494008EB
:102D000088422ADC002D28D1704802215430005915
:102D10000090FDF709FB6D4960310959FDF730FA64
:102D20003D592946FDF72CFA6D49FDF782FA6D49A8
:102D30000959FDF77EFA6C490968FDF77AFA63498B
:102D40000959FDF71DFA0146604801515F49009895
:102D50006031085108460C3805515F480C30015964
:102D60005A482018FFF742FC5E481830005901907D
:102D700038590199FDF75DFA5A490C390959009102
:102D8000FDF757FA514D07467F213C35C90501989B
:102D9000FDF747FA0099FDF74CFA54490959039198
:102DA000FDF747FA3946FDF7EBF948490959FDF7B0
:102DB000E7F928514B480C3000590290002801DCFB
:102DC000285972E04A480AA9C27B07A8002A06D0FF
:102DD000444A183A125902513C4A303A05E03B4AFB
:102DE000483A12590251394A3C3A12590A5100598B
:102DF0007F22D2050090904208590190014604AF0D
:102E0000104608DAFDF70DFA0D903A48019900597D
:102E1000400040080BE0FDF704FA0D90009901987E
:102E2000FDF744FA01463348005940004008FDF7D9
:102E300000FA0D99FDF7A4F93851244824300159BE
:102E40000398FDF7EEF90299FDF7F3F925493839B2
:102E5000C9690D91FDF7EDF90E901C48303001590C
:102E60001830025901921046FDF7DBF90299FDF77F
:102E7000E0F90099FDF7DDF93959FDF7DAF90D9917
:102E8000FDF7D7F90E99FDF7CCF91049019A3031C9
:102E90000A510E4A0399243211513146FFF7D0FBF3
:102EA00001462859FDF76CF928510E493839C9688F
:102EB000FDF7BFF92851084801596019FFF796FB43
:102EC00028590FB0F0BD000000000020EC040020E5
:102ED00048E17A3F88020020383B0008CDCCCC3D49
:102EE0007EAA2A3E60010020540000201004002029
:102EF0000403002094020020F8B51248016812482B
:102F0000FDF7D4F9114C7F25E061ED05104E124814
:102F1000812200953346D2050E490068FFF7DEFD99
:102F2000E060B04201DDE66002E0A84200DAE56060
:102F30000A48C07B002804D00949E068FDF779F908
:102F4000E060F8BD5400002017B7513B2801002075
:102F5000713DAA3F000040402000002004030020F3
:102F60006666663FFEB5022569460D71032048710D
:102F700000248C71CC7101212846FDF737FC314FBC
:102F800031483946FFF7ADFA01210E023046FDF710
:102F90002DFC39462D4F3846FFF7A3FA2C48602107
:102FA00001800121418084810682846010200924EF
:102FB000E406009069462046FDF793FB0422114683
:102FC0002046FDF7C6FB22493846FDF79FFC40200E
:102FD000009069462046FDF784FB01220621204629
:102FE000FDF7B7FB1A491848FDF790FC80200090C8
:102FF00069462046FDF775FB012207212046FDF7B3
:10300000A8FB13491048FDF7BFFC124C6946204647
:103010000095FDF766FB012211462046FDF799FB5E
:103020000B490948FDF7F8FC01210748FDF758FC5A
:1030300001210548FDF75EFC01213846FDF750FCF3
:10304000FEBD0000CF07000000040040002000404B
:10305000AC0500200004004810B50A460446124999
:103060001046FDF7E6F8FDF77DF9002801DA0020AB
:1030700003E00E49884200DD0846002C09D0012CEF
:103080000CD00B49022C0CD0032C01D180B28863E8
:1030900010BD074980B24031086010BD80B20549BB
:1030A00000E080B2486310BD00E0F944CF070000A3
:1030B0000004004000200040F8B506467F20C0050F
:1030C0000C46814201DD044603E010498C4200D9E0
:1030D0000C4621460746FDF7A4F83146FDF7A9F84E
:1030E000054631460846FDF7A4F83146FDF7A1F83C
:1030F0002146FDF79EF82946FDF742F80090394633
:103100006846FFF773FA0098F8BD0000000080BF22
:1031100070470000FEB5254D254C2F68A66839463E
:103120003046FDF786F8234909680091FDF781F8DC
:103130006168FDF77AF839460190FDF77AF8009951
:10314000FDF777F83146FDF71BF8074668680290EF
:10315000266801463046FDF76CF80099FDF769F8DE
:103160003946FDF762F8A0600299FDF762F8009910
:10317000FDF75FF83146FDF703F8AD6806462946CE
:103180000198FDF756F80099FDF753F83146FDF721
:103190004CF829462060FDF74CF80099FDF749F8F6
:1031A0000199FCF7EDFF6060FEBD000010040020F7
:1031B000EC040020540000207CB5434801258573B1
:1031C0000021C1730221414800F020FC3F48072143
:1031D000733000F01BFC3D480621613000F016FC06
:1031E0003A480421343000F011FC6420FEF77DFCE5
:1031F00036480621673000F009FC0021012000F06C
:103200006DFC0121022000F069FC3921062000F04C
:1032100065FC0F21112000F061FC0021042000F06A
:103220005DFC0321084600F059FCE22000F010FC90
:103230000021052000F052FC38211D2000F04EFC3A
:1032400000F06AFAFD2000F0ABFA002000F0A8FAC6
:1032500000F05CFA8F21002000F040FC0F2000F00D
:1032600018FCC62802D00320FEF74AFC174CA068C1
:10327000002827D016486A4603C801910090012013
:1032800021465C310B18203BDB7F1354401C062881
:10329000F8DB0621104600F0B9FB302069460870C3
:1032A0000621684600F0B2FB084821693C30415CC9
:1032B000252000F013FCE5606068002801D0054877
:1032C00020627CBDE5617CBD0403002090010020EC
:1032D000503B000888130000012040020921C90664
:1032E0008861024901208860704700001C020020AC
:1032F000012040020921C906886103490881034968
:103300000020886070470000200000481C02002058
:10331000012003494002088102490020886070476B
:10332000200000481C02002010B5074C206800282F
:1033300001D100F0B1F8012080020921C90688619D
:103340000120606010BD00001C02002010B5064C7A
:103350002068002801D100F09FF801200349800275
:1033600008810020606010BD1C0200202000004881
:1033700070B590B000206C4681006050401C0F2852
:10338000FADB852000902248224D066822480196EB
:1033900029460068FCF74DFFFCF7E4FF0104C0B2CA
:1033A000090E049003911D4829460068FCF741FF6F
:1033B000FCF7D8FF0104090EC0B2194D0591069023
:1033C000686CC10F08184010FF2800DDFF2007902F
:1033D000002E03D0039808210843039000210846DB
:1033E0008200A258401C51180E28F9DBE1200E91F2
:1033F00000F02EFB8221002000F070FB0F216846B8
:1034000000F058FBFEF788FEA86410B070BD000005
:10341000300000200000C8422000002024000020CE
:10342000900100201B4801680122114301600168DE
:103430008907FCD54168890889004160416809070E
:10344000890FFBD1016801221206914301600168D6
:103450008901FCD441683F231B04994341604168C2
:103460007B23DB039943416041680723DB04194355
:10347000416001681143016001688901FCD5416820
:1034800002221143416041680907890F0229FAD1DC
:10349000704700000010024010B505490120086087
:1034A0000C3108710920C006FDF71BF910BD0000A2
:1034B0001C02002010B57520FEF739FF682807D0E0
:1034C000982805D07D2803D0722801D0002010BD97
:1034D000012010BD10B580216B20FEF72EFF124891
:1034E000FEF703FB01216B20FEF727FF7520FEF797
:1034F0001EFF682801D0012400E000246420FEF7AC
:10350000F4FA18211C20FEF718FF002C03D0052127
:103510001D20FEF712FF18211B20FEF70EFF0021D1
:103520001A20FEF70AFF10BD409C0000F0B593B0D2
:103530000E2269463B20FEF7F1FE02980399000235
:10354000401800B2FCF7FCFE2E4C20600098019958
:103550000002401800B24042FCF7F2FE606004989E
:1035600005990002401800B2FCF7EAFEA060089836
:1035700009990002401800B2FCF7E2FE11900A9887
:103580000B990002401800B2FCF7DAFE10900C987C
:103590000D990002401800B2FCF7D2FE12902434BC
:1035A00021681098FCF73DFE109061681198FCF7B7
:1035B00038FE1190A1681298FCF733FE129001209A
:1035C000109AC00711994240109111464140119143
:1035D00012990C4F4140002410AE0C371291A500F7
:1035E00070590949FCF725FE0849FCF722FE705185
:1035F0002146FFF76FF8641C7851032CEFDB13B002
:10360000F0BD00000404002000007A3D35FA8E3C35
:10361000FEB50126B6020124684600960471847145
:10362000C471032509274571FF0669463846FDF731
:1036300058F86002009069463846FDF752F808488D
:103640000021066001718471C47145710C384160BC
:1036500004608160FFF768FEFFF73EFEFEBD0000DC
:103660002802002070B50D460446FDF7F7FA600009
:103670000446FDF7CFFA2846FDF7CCFAFDF7BCFA71
:10368000601CFDF7C7FA0120FDF77CFAC4B2FDF714
:10369000F7FA204670BDFFB581B01D4616460746B5
:1036A0000024FDF7DBFA78000746FDF7B3FA02982D
:1036B000FDF7B0FAFDF7A0FA781CFDF7ABFA6D1E26
:1036C00005E00020FDF75EFAA1007050641CAC42DA
:1036D000F7DB0120FDF756FAA1007050FDF7D0FA94
:1036E00005B0F0BD70B515460E460446FDF7B6FAB6
:1036F0006000FDF78FFA3046FDF78CFA2846FDF79B
:1037000089FAC4B2FDF7BCFA204670BD0149012018
:103710008861704700140048014901200881704702
:1037200020140048FEB50124684604710025857107
:10373000C4710326467102200B4F0090694638463B
:10374000FCF7CFFF694638460094FCF7CAFF0748EC
:10375000046005718571C471467101460920C00677
:10376000FCF7BFFFBC61FEBD00140048340200201E
:1037700070B4002007210223074C0925074EED06EF
:10378000A3614200288A3381C007C00F1043491E3D
:10379000F6D570BC704700000014004820140048A3
:1037A000F8B504460F4809260168F60601250029E8
:1037B00006D105600C48057101463046FCF791FFC3
:1037C00007210A4B0A4F022022460A41D20701D0A4
:1037D000B56100E01D81B861064A1081491EF3D52C
:1037E000F8BD000030020020340200202000004814
:1037F000001400482014004870B50C4AC9008C1809
:10380000054660680A492060FCF713FD0646094931
:103810002846FCF70EFD3146FCF7B2FC60602268DA
:1038200001461046FCF7ACFC70BD00008C04002083
:1038300007715D3FE23B8A3DF8B5474D044601689C
:103840002868FCF7A9FD04D161686868FCF7A4FD4D
:1038500055D0206828606068404E686031466068D6
:10386000FCF7E7FC3E4F3946FCF7E3FC05463146E2
:103870002068FCF7DEFC3946FCF7DBFC0646FEF769
:103880006BF9354C083420602846FEF765F9606016
:103890002846FEF757F905463046FEF753F9294604
:1038A000FCF7C7FC0646A06060680146FCF7C1FC57
:1038B000054620680146FCF7BCFC2946FCF760FC85
:1038C0002849054688420FDD31460846FCF7B1FC21
:1038D0007F21C905FCF7A9FC01462846FCF7E6FC58
:1038E000FCF74EFF054600E01F4D20682946FCF717
:1038F000A0FC206029466068FCF79BFC6060164CC9
:103900001A4E0834A068009070680099FCF791FC8A
:10391000B768054661683846FCF78BFC2946FCF71A
:1039200080FC134D686030680099FCF782FC064605
:1039300038462168FCF77DFC3146FCF772FC7F2499
:10394000E405286021462846FEF750FE2146281D42
:10395000FEF74CFEF8BD0000B400002000007042ED
:1039600035FA8E3C6F12833AF4FD343FC8000020D4
:1039700034040020F8B50A4C06466068094905463B
:103980002060FCF756FC074607493046FCF751FC1F
:103990003946FCF7F5FB29466060FCF742FCF8BDB0
:1039A000F8000020E379673FF2BC733F10B5084888
:1039B000064941610749CA6903231202120A4404F5
:1039C0002243CA6100218161036110BDFF117A00A9
:1039D00000E000E004ED00E00A48436980690A491C
:1039E0004A68904201D2121A01E01B1A9A184860E4
:1039F00008681218D008C300D21A0A608A68101822
:103A00008860704700E000E03C02002070B50D4681
:103A10000646FFF781FE002404E0305DFFF7C0FE9C
:103A2000641CE4B2AC42F8D3FFF770FE70BD000036
:103A3000064A10B580008018FCF70CFE042804D05C
:103A4000FCF700FE0520FEF75BF810BD007C0008C7
:103A500010B50446FFF760FE2046FFF7A1FEFFF712
:103A600055FE002010BD70B50D4606460024FFF738
:103A700053FE6120FFF794FEFFF74EF804E0FFF7D6
:103A800077FEA1007050641CAC42F8DBFFF73EFEED
:103A900070BD10B5C406E40EFFF73EFE2046FFF7EA
:103AA0007FFEFFF739F8FFF763FE0446FFF72EFEAF
:103AB000204610BD70B50D4606460024FFF72CFECB
:103AC000A020FFF76DFE04E0A0003058FFF768FE6D
:103AD000641CAC42F8DBFFF719FE70BD70B58406BC
:103AE000A40E20200D460443FFF716FE2046FFF7E4
:103AF00057FE2846FFF754FEFFF708FE70BD0C0185
:103B000000010003000C0200020003000C0300038C
:103B10000003000C0400040004000C040003000473
:103B2000000C0400030003000C0400030002000C5E
:103B300004000300010000009A99D93F9A99D93FE7
:103B40000000003F9A99D93F9A99D93F0000003F61
:103B50002A000000000000002A0000000000000011
:103B6000843B0008000000204802000068040008B0
:103B7000243C00084802002078070000400B0008A1
:103B8000D1CFFFFF32012904810510CDCCCC3D25DA
:103B90006666864043803FA92CC92061A92009128E
:103BA0002CA1033820C1A0097B14524185EB41416F
:103BB000499C09100C01247AA0BC01241354012A49
:103BC0002064880D3AE79C3F3F55C03EAE70193ED9
:103BD0007849042DF6285C3E0418086666863F3353
:103BE00033B3143AC0043CA4703D043808CDCC0C67
:103BF0003F7B146E042D6666663F541A60041A6C8F
:103C000004031E39010312B80B05293EF6375D5037
:103C1000083F0A6D679C462A490600083E3A45213E
:043C2000EF2C5A50DB
:04000005080000C926
:00000001FF
