:020000040800F2
:10000000C8090020C9000008EF0000087B070008AD
:1000100000000000000000000000000000000000E0
:10002000000000000000000000000000F3000008D5
:100030000000000000000000F50000087D08000836
:10004000F9000008F9000008F9000008F9000008AC
:10005000F9000008F9000008F9000008F90000089C
:1000600000000000F9000008F9000008F90000088D
:10007000F9000008F9000008F9000008F90000087C
:10008000F90000080000000000000000F90000086E
:1000900000000000F9000008F9000008F90000085D
:1000A00000000000F900000800000000F90000084E
:1000B0000448854600F0C6F900F052F800480047B1
:1000C00061270008C80900200C4880F308880C4804
:1000D0000168090E0B4A914205D10B480B4901609A
:1000E0000B480C4901600C4880470C480047FEE76C
:1000F000FEE7FEE7FEE7FEE7FEE70000C809002096
:10010000040000001F000000181002400100000061
:10011000000001400000000081080008B100000854
:1001200030B50B46014600202022012409E00D468F
:10013000D5409D4205D31D469540491B2546954017
:1001400040191546521E002DF1DC30BD0321001D63
:10015000401E037812021A43491EF9D51046704713
:1001600070B5054C054D03E0206800198047241D3B
:10017000AC42F9D170BD00004C3C0008503C000876
:10018000F8B502464A40D40F42004B0052085B08C3
:100190009A4202D20246084611464A0023D0C30DB5
:1001A0004A00DDB2120EAD1A202D35DA49020126C1
:1001B000490AF6058A19002C00D0524220214F1B13
:1001C0001146B9402A411018C20D9A4221D0002C84
:1001D00017D0012D08DCDA05801AD20F8019D2075A
:1001E000DBB200F0F5F8F8BDDA05801A0123400013
:1001F0001B06C01880185A428018CA0F10434900C5
:1002000007E04908C2071143DA05801A801940083F
:10021000801800F0D5F8F8BD61000122511A001BCA
:10022000F7E70122D2075140AAE70122D207504046
:10023000A6E7024670B54A40D30FDB0740002DD039
:100240004A002AD0010E140E000212020919400AB7
:10025000520A8418E50104465443000A120A2E0487
:100260005043A4194219200CC543AA18120C0125A9
:10027000AD03521C521912047F39240400D0521CC1
:10028000104301D44000491EC2B20C06C009201818
:10029000401C4008802A02D003E0002070BD4008C6
:1002A0004000002900DA0020184370BD70B50246F6
:1002B0004A40D50F40004A00ED0740085208002888
:1002C00014D0002A12D0C40DD30D41020120C00564
:1002D0005202490A520AE41A091812187D3491424E
:1002E00001D3641C00E04900002C01DA002070BD3D
:1002F0000023914201D3891A034340084900002892
:10030000F7D100290AD0914202D10121C90705E0A5
:10031000914201D2012101E00121C943E005C01849
:10032000401900F04DF870BD420005D04200120E99
:1003300052428A4201DB00207047C9050818704705
:10034000C217C10F504010B54018CA0796230021AC
:1003500000F03EF810BD10B500229623114600F0C3
:1003600037F810BDC20F410040020123400ADB05EF
:10037000D207090EC0187F2901DA0020704796299C
:1003800003DC9623591AC84001E096398840002AB8
:10039000F4D04042704700000122D207002800DB61
:1003A000101A002900DB511A814270470122D2073E
:1003B000002800DB101A002900DB511A8842704720
:1003C000002904DA401C490001D140084000704770
:1003D00070B40024050C05D11024000402D10029BA
:1003E00021D01124050E01D100020834050F01D1DE
:1003F0000001241D850F01D18000A41C002801DB11
:100400004000641C002908D020252E1B0D46F54015
:10041000A14000D001212943084301061B1B000A0B
:10042000DB1D02D5002070BC7047DB051818801852
:100430000029F8DA401C4900F5D170BC40084000A2
:1004400070470000064C0125064E05E0E36807CC26
:100450002B430C3C98471034B442F7D3FFF72CFEE3
:100460002C3C00084C3C000870B58C180578401CEA
:100470006B075B0F01D10378401C2A1106D102786B
:10048000401C03E006780E70401C491C5B1EF9D12D
:100490002B0705D40023521E0DD40B70491CFAE71C
:1004A0000378401CCB1A921C03E01D780D70491C88
:1004B0005B1C521EF9D5A142D8D3002070BD836ABF
:1004C0000B438362426170470029816801D0012299
:1004D00000E002221143816070470029C16802D008
:1004E0000122114301E049084900C1607047C26818
:1004F00002239A43C260C2680A43C260704782689E
:1005000000210123DB071A4382600F231B0382684B
:10051000491CD20FD207994201D0002AF7D1816835
:10052000002901DB006C70470020704730B5C268BD
:10053000084B8C681A400B680D792343CC686D0317
:100540002C4323430C69496923430B431343C36082
:1005500030BD000003D2FFFF816804221143816097
:1005600070470021016001718160C16001614161DA
:10057000704700000122054992050028886801D0D3
:10058000104300E09043886070470000002701405E
:100590000029016802D00122114301E0014A114003
:1005A00001607047FEFF000030B503680C4A0C6A1A
:1005B00013408A684D6922430C692C4322438C699D
:1005C0002243CC6922434C6A22438C6A22431A4359
:1005D0000260CA6842600A6882604968C16030BDD2
:1005E0000F80FFFFF0B50B2706463F04384600F0AA
:1005F00067F804280FD1084C2069022528432061A0
:1006000066612069402108432061384600F058F8AF
:100610002169A9432161F0BD00200240084904205E
:10062000CA68D20701D001207047CA68D20601D536
:1006300002207047C9684907FBD5032070470000B6
:100640000020024002480169802211430161704785
:1006500000200240F8B5064600200B273F0400901A
:100660000D46384600F02CF8042815D10B4C2069B3
:100670000121084320613580384600F021F8042824
:1006800006D1B61C290C00963180384600F018F8C7
:100690002169490849002161F8BD0000002002409D
:1006A00004480169090603D50349416003494160D3
:1006B000704700000020024023016745AB89EFCD61
:1006C00000B50346FFF7AAFF02E0FFF7A7FF5B1E96
:1006D000012803D0002B00D1052000BD002BF4D150
:1006E000FAE7F0B50022032501230C6893401C4073
:1006F0009C422AD10C79012C01D0022C12D187689E
:1007000054002E46A640B74387604E79A6408468C1
:100710002643866084889C43848084888B799340B8
:100720001C438480066853002C469C40A643066008
:100730000E7907689E403E430660C668A643C660C1
:10074000CC799C40C3681C43C460521C102ACBD394
:10075000F0BD4B07DB0E9A40C90810B58900081898
:10076000016A0F249C40A1430162016A11430162A6
:1007700010BD0185704781617047052001F0D6F9F1
:1007800070B5FF2500210446AD05C943FFF7CCFD38
:1007900006460F4960100C1A21463046FFF749FD06
:1007A0002146FFF746FD2946FFF73FFD2146FFF7AB
:1007B00040FD044601463046FFF73BFD2146FFF76A
:1007C00038FD2946FFF731FD2146FFF732FD70BDA8
:1007D000DF59375F044A0029516901D0014300E025
:1007E000814351617047000000100240044A002913
:1007F000D16901D0014300E08143D161704700001D
:1008000000100240044A0029916901D0014300E030
:100810008143916170470000001002400CB5002038
:10082000009001901349112008601348416841600D
:100830004168416041687B22D20391434160416835
:100840000522D204114341600168012212061143BE
:10085000016001688901FCD541688908890041600F
:10086000416802221143416041680907890F02294A
:10087000FAD10CBD00200240001002407047000079
:1008800010B5144801680122114301604168124A01
:10089000114041600168114A114001600168012264
:1008A00092049143016041683F22120491434160E8
:1008B000C16A09090901C162016BFF2254329143E7
:1008C0000163416B49084900416300218160FFF7E2
:1008D000A5FF10BD001002400CB8FF08FFFFF6FE98
:1008E0000029018802D00122114301E04908490092
:1008F0000180704740300029818803D00122D20353
:10090000114301E04904490C8180704770B5028CA5
:10091000520852000284048C8288038B7025AB43FA
:100920009B080D889B001D4302239C438E894B88A6
:100930002643104C3343A04208D00F4CA04205D0B0
:100940000E4CA04202D00E4CA0420DD10824A3436D
:10095000CC891C4304239C438B882343094C2240AD
:100960000C8A14434A8A2243828005838968416342
:10097000038470BD002C0140004001400044014050
:1009800000480140FFFC000070B5028C10239A4320
:100990000284048C8288038B1A4D2B400D782D061F
:1009A0002D0C1D4320239C438B891B051E0C4B885B
:1009B00026431B051B0C144C3343A04202D0134E9C
:1009C000B04219D1124E32400E8AB604360C324370
:1009D000A04211D18024A343CC892405240C1C43BC
:1009E00040239C438B881B051B0C2343094C22404E
:1009F0004C8AA404240C2243828005838968816385
:100A0000038470BDFF8C0000002C014000400140B9
:100A1000FFFB0000FFF7000030B5028C124B1A40BC
:100A20000284058C8288838B104C23400C7824062A
:100A3000240C1C430E4B1D400B7B1B071B0C2B4334
:100A40008D782D072D0C1D430A4B984205D10A4B7A
:100A500013400A8A9205120C1A43828084838968A3
:100A60000164058430BD0000FFEF0000FF8C000032
:100A7000FFDF0000002C0140FFBF000010B502881E
:100A8000144B984206D00124A407A04202D0124C75
:100A9000A04203D17024A2434C8822430F4CA042B1
:100AA00003D00F4C22400C89224302804A68C26264
:100AB0000A880285984208D00A4A904205D00A4A1C
:100AC000904202D0094A904201D1897A01860121DF
:100AD000818210BD002C0140000400400010004045
:100AE000FFFC00000040014000440140004801407C
:100AF0000146034888600348C86008467047000004
:100B00000AD7A33CFC3F4E3D002101607047FFB572
:100B100081B01C4617460E0007D0019D02E0284612
:100B2000B047ED192046641EF9D2019805B0F0BD1A
:100B300002E008C8121F08C1002AFAD170477047A6
:100B4000002001E001C1121F002AFBD17047000004
:100B500010B50323102207490748FFF7D8FF0748BD
:100B60000021016004480323082205493030FFF7C3
:100B7000CEFF10BDF10A000864040020F800002038
:100B8000090B000870B5174D064668680024002858
:100B900001D102F02FFC2868002801D102F0E2FC0C
:100BA0000722012302F0FEFB00F01EF8002803D00C
:100BB000184690402043C4B202F010FC521EF1D5FA
:100BC000002E02D002F016FC01E002F025FC02F03B
:100BD000E9FB02F003FC6868002801D002F01CFC6D
:100BE000204670BD240200200920C006008A012191
:100BF000890208407047000010B505484068002889
:100C000001D102F0F7FB02F0CDFB02F005FC10BDB4
:100C10002402002070B5104E0546B068012801D1AD
:100C200002F0DCFB072428462041C00702D002F076
:100C3000E1FB01E002F0F0FB02F0C0FB641EF2D524
:100C40007068002801D102F0D5FB02F0ABFB02F086
:100C5000C5FB384670BD00002402002010B5074ACD
:100C60009068002801D102F09DFB5068012803D153
:100C7000FFF7BAFF02F0D0FB10BD000024020020F5
:100C800010B5084C6068012804D1A068002806D17E
:100C900002F0C2FBA068002801D102F083FB02F041
:100CA000A9FB10BD24020020F8B5154E4520000612
:100CB00037460025183FB06002F09EFC0024A000DB
:100CC000395880190F4A01F0BAFC641C032CF6DB7A
:100CD00001F038FAFF20F5306D1C8542ECDB452130
:100CE0000906B068FFF79DFA074D0024B060A00028
:100CF0008019294601F090FC641C032CF7DBF8BD39
:100D0000240400201F856B3F0000FA4370B592B0A9
:100D1000202503206946069508770024CC77092012
:100D200006A9C006FFF7DDFC01214802FFF76AFDB6
:100D300001210846FFF74EFD2A4806902A480790F1
:100D40000220099080200B9040000C9008948000B5
:100D50000E950D900A94C000244D0F9006A9109492
:100D60002846FFF721FC1F4E0221403E3046FFF788
:100D7000BEFB01213046FFF7B0FB6846FFF7F1FBF1
:100D8000012069460094087104200590029404949F
:100D90003046FFF7CBFB0121072249043046FFF71D
:100DA0008EFB072220213046FFF789FB0120FFF749
:100DB000E1FB3046FFF7A3FB01213046FFF784FB40
:100DC0003046FFF7C9FB01212846FFF7E1FB084841
:100DD0000088FFF7C0FA0749FFF72BFA024948607D
:100DE00012B070BD402401401002002008000240F3
:100DF000BAF7FF1F62DB963F10B50B49002803D0FE
:100E0000012808D0002010BD0888FFF7A4FA074980
:100E1000FFF70FFA10BD4888FFF79DFA0146024818
:100E20004068FFF743FA10BD100200203FC8B23AF5
:100E3000F8B5840013481349183007590968384633
:100E4000FFF7F7F90F4D06461035284610300159C7
:100E50003846FFF7E6F9294608390968FFF7E9F946
:100E600009490968FFF7E5F93146FFF789F9285183
:100E70002846103007516019044901F0CDFB28596C
:100E8000F8BD0000000100204401002000001644CD
:100E9000F8B505460C46480000D1294C0121002632
:100EA000C9078D4203D94C404D408126F605002CE0
:100EB00009DC204648402C4605460121890730467A
:100EC000FFF75EF9064621462846FFF76FFA10D86D
:100ED00021462846FFF7A5F9074621462846FFF791
:100EE0004FF904467F213D46C9053046FFF748F9D2
:100EF000064621462846FFF7D9F904461149FFF76F
:100F000098F91149FFF73CF92146FFF792F90F498B
:100F1000FFF736F92146FFF78CF904460C493046B5
:100F2000FFF787F92146FFF72BF90A49884202DDCE
:100F30000949FFF776F90949FFF77BF9F8BD000089
:100F4000567C0A2A4BC887BD7EAE36BE42DA833F46
:100F5000DB0F493FDB0F4940DB0FC940E12E654203
:100F600070B5184CA06B002804D00025012809D0CA
:100F7000A56370BD0120606202F060FAA06B401CA6
:100F8000A06370BD172002F0EAFDC00608D58F21CE
:100F9000002002F009FEA563656201F099FE70BDB4
:100FA00001F0D0F8A16C401A07498842F7D9E12036
:100FB00002F0B4FD8F21002002F0F6FDA56365620A
:100FC00070BD00009001002010270000F8B5294DE9
:100FD000294F28683968294E084303D12848807B67
:100FE00000283CD001F0AEF804467068002804D018
:100FF0002968002903D0234D07E07460F8BD3A68E2
:10100000002A01D0204D00E0204D214A201A9042B4
:1010100001D80029F2D0B068002807D11D488442C9
:10102000ECD901F0AFF8B0600028E7D0294620469F
:10103000FFF776F86808814216D93068164900280B
:10104000164802D0FFF797FB01E0FFF792FB3068EC
:10105000002802D000203060F8BD0120FBE700200E
:101060007060B0680028F7D00B490C48FFF781FB8F
:10107000F8BD000030000020B80100206C00002006
:101080000C030020400D0300801A0600C027090051
:1010900040420F0080969800004000000000004889
:1010A00070B5002506462C46A00030580146FFF7D3
:1010B000C0F82946FFF764F8641CE4B20546032C27
:1010C000F2D3FFF75DFB01467F20C005FFF7EEF886
:1010D00070BD0000F8B5164F0C227968134E5143CD
:1010E000144A8A1839688C001159002802D0124E0F
:1010F000491C00E0491E1151BD6831462859FFF7CF
:1011000098F828513C68002C04D131466868FFF7F4
:1011100090F8686078680C21484306494018A1009F
:101120004058002800DA4042F8BD00002EBA683F5F
:1011300028010020D0040020CDCC8C3F30B5002207
:1011400007239C1A6418203C855CE47FA54201D0EB
:10115000002030BD521C072AF3DB012030BD000007
:10116000FEB5072002F0FBFC0007400F0026072811
:1011700001D0022000E0304601246A4D002862D0F0
:10118000E86800281DD000F0DDFF07460F21664803
:1011900002F0CFFC00F01EFC002853D0286C401C4D
:1011A00028646868002801D0FFF7DAFEEE622E633B
:1011B0002869EF642F65AE62A865686A00283FD091
:1011C00040E00F21584802F0B4FC574B1868A4289F
:1011D00001D0A32837D1A32802D154486C602862DB
:1011E0005048197E3C300170197F4170198C817014
:1011F000998CC1704E494B4F8868C9680090012096
:1012000001915C378100595C6A4611543A18203AC2
:10121000401CD1770628F5DB0621684602F05CFC0D
:101220003020694608700621684602F055FC3D48AA
:1012300029693C30415C252002F0B6FCEC6002E0FC
:1012400001F046FD6C61686A002801D0FFF788FE56
:1012500000F078FF0746E86C391A286A82007D2082
:10126000C000101881420BD9E868002808D0EF644C
:10127000286B002801D1A86D286101F029FD2C639D
:10128000696A286B084319D1E86A0090052815D2CD
:10129000E868002812D0E86C7D21381AC90088421D
:1012A0000CD9296AFEF73CFF01460098401C814298
:1012B00004D301F00DFDE86A401CE862286D391A7C
:1012C0001C48814206D91C48AC62066046608660B4
:1012D000C66002E0A86A002803D0E869002802D0AE
:1012E00011E0EC610FE0A8691449381A88420AD964
:1012F0000C48EE6006216D30EC6102F0EDFB002140
:10130000052002F051FC00F01DFF696D411A0948EB
:10131000814205D9286C2E64686400F013FF68656B
:10132000FEBD000090010020780500208813000019
:101330001C3C000840420F00DC030020C0E1E40038
:1013400000B502F0D5F800BDF0B57F2587B0ED05FA
:10135000FC480195807B002802D13F2000060190C7
:1013600000263446F848B700C0590199FEF761FFDE
:10137000F64B4200F6495208D8518A4201DCDC5152
:101380000FE00122D207904203D82A46002300959D
:1013900003E0F04A0023F049009201F0B5FBEB496D
:1013A000C851761C032EDDDB01F00CFEE548EB4E48
:1013B0000078002803D0EA480068002868D0E34F8E
:1013C000E8493868FEF735FFE749FEF732FFE7499D
:1013D0000860E4497868FEF72CFFE349FEF729FF2F
:1013E000E2494860DF49B868FEF723FFDE49FEF7AF
:1013F00020FFDE4900278860D848BE008159DB48BD
:101400008059FEF70EFFD1497F1C0C398851032FFC
:10141000F2DB01F0E5FE002001F07AFC012001F092
:1014200077FC022001F074FCC648D14B8279D14888
:10143000D1490126002A7CD0C34AD768CF4A9742B7
:1014400002DD0A68002A75D01A68012AFBD00660FE
:101450000E60BC4ACA4FD27B002A6CD0BE610068C5
:10146000002869D0B8690028B748C0687DD0C54950
:101470000090FEF7DEFEC449FEF782FE7861BF49A8
:101480000098884203DDC148016800296ED0F7E06A
:101490000021AE4802F036FAAC48B2498068FEF747
:1014A000C8FEB149FEF7C5FEB94F039078680399AD
:1014B000FEF7BFFE009001213868C9074840039934
:1014C000FEF7B7FE0190B8680399FEF7B2FE0290EE
:1014D000B0480590B0480490AA4806909948C07B4F
:1014E00000287DD0AD4903C94700490049087F085D
:1014F00038460391FEF75AFF00D9039F04993846F6
:10150000FEF74AFF05D838460499FEF7CFFE04904F
:1015100000E004958D480699006847007F0838462A
:10152000FEF73AFF09D838460699FEF7BFFE074690
:1015300004E07FE08AE08DE08EE02F460499059874
:10154000FEF777FE039096483946FEF772FE039940
:10155000FEF716FE07468E4881680120C0078142CB
:101560000ED97A487F49006801E07AE087E0FEF70B
:1015700060FE7D49FEF75DFE3168FEF752FE26E013
:101580008848016888480160704876490068FEF71D
:1015900050FE7549FEF74DFE3168FEF742FE3946B2
:1015A000FEF747FE039039462846FEF73AFE074607
:1015B0000020FFF73DFC0099FEF7E2FD3168FEF7E1
:1015C00030FE3946FEF735FE0399FEF7D9FD5F4F31
:1015D00064490C3F38605D484068FEF72AFE00E031
:1015E00008E06149FEF725FE7168FEF71AFE786093
:1015F000B16818E000276B48BE0081596A488151E4
:101600003846FFF715FC69468959FEF7B9FD53497D
:101610008959FEF706FE4D497F1C0C398851012F70
:10162000E9DD4E4881680298FEF7FBFD47490C3919
:101630008860EEE65D4A04601268012A00D008E77F
:101640005B4A1268012AFAD11C6002E7594A046019
:101650001660FEE6BC6102E74C487C6104600C60E9
:101660000EE04949884203DA48487C61046007E09B
:10167000FEF7D7FD5049FEF7DCFD78614348066070
:101680004E480068002803D14D487969814225DA27
:101690007868002807D000F055FD7968401A49495C
:1016A000884200D97C600025E8B2002101F03AFDB3
:1016B0006D1C032DF8DD01F055FA434D30482A46E4
:1016C0000021083000F0BBFF2D482A4600210C30D5
:1016D00000F0B5FF3E60FC6107B0F0BD002038604F
:1016E00000F030FD7860786902F0AAF97969FEF7B8
:1016F00047FD0121C9077861884202D9002078613D
:1017000002E0A84200DD7D6130480068002802D078
:101710002F48C06878610B48007800285FD01C48CB
:101720007C6981683F200006814200DC014620463A
:10173000FEF7BCFD274978618C424DDA88424BDDCB
:1017400079614CE00C030020DC0300209C020020A7
:101750000AD7233C000080BF0AD723BC180400200E
:10176000D40000200000164435FA8E3C3C050020D1
:101770005C0000206400002068000020CDCCCC3D3F
:10178000000000203333733FCDCC4C3D600000207F
:10179000C80000209A99993E00005C42480400204D
:1017A0003333333F3C040020180100203400002074
:1017B000A4010020380000209932873FB8010020A2
:1017C0006F12833A40420F00EC51383FDC0000209A
:1017D000540400206666663FA84200DD7D61734CBC
:1017E00073482668406931460590FEF71AFD04905B
:1017F00067683946FEF715FDA4682146FEF7C0FC70
:10180000039031460598FEF7BBFC06463946FEF7C5
:1018100008FD2146FEF705FD019039460498FEF7C4
:10182000AFFC2146FEF7FDFC029030463946FEF73C
:10183000A7FC2146FEF7A4FC00246E460090A700FA
:10184000F059214601F008FAF051214601F0CAF999
:10185000641CF051032CF2DD0020564F0446049026
:10186000A600684680590499FEF7A0FD02D268469A
:1018700080590490684680593946FEF78DFD01D2A3
:1018800068468759641C042CEADB7F21C90504984B
:10189000FEF7C7FC3F252D06A84200DD2846444C34
:1018A000A168FEF783FD04D24349A068FEF768FCF7
:1018B00003E04249A068FEF7B4FCBF263606A060EC
:1018C000B74200D937463846E168FEF765FD04D2D5
:1018D0003949E068FEF7A5FC03E03849E068FEF707
:1018E0004FFCE060B04201D9E66003E03449884231
:1018F00000DDE160E068002800DD32483049FEF795
:1019000098FC0746A068A84201DDA56003E02E49C7
:10191000884200D9A160264801268068F607B042B7
:1019200000D92A482649FEF784FC002801DCB7428A
:101930000ED93946FEF724FC00246F460490A5001A
:1019400078590499FEF76DFC641C7851042CF6DB81
:101950000020174F05466E46F861AC0031591C480F
:10196000814201DB084600E0305101F085F9014673
:10197000E8B201F0D7FB30590121C907884202D9EA
:101980000020305104E07F21C905884200DD31513B
:101990003159F869FEF7F4FB6D1CF861032DDCDDAD
:1019A0000121C943FEF7C0FCF86195E6300500202F
:1019B000000000206F12833A0AD7A33B0AD7233CCA
:1019C000CDCCCC3D17B7D138CDCCCCBD17B7D1B825
:1019D000CDCC4C3DF8B5464D2868A52879D10021DD
:1019E00008468200AA58401C51180E28F9DBC8B2DC
:1019F000A96B88427AD13E48103001F079F93D4E0A
:101A000030603B48183001F073F970603848283076
:101A100001F06EF9B060288C696A8007800D40186B
:101A2000FEF78EFC3449FEF704FCF060297B334C52
:101A30000806C00FA071A868C206D20FE271820624
:101A4000D20F22728A06D20F4907E272C90FA17221
:101A50000107C90F21706A68FA2A17D00022627044
:101A60008207D20FC007C00FA270254DE070002979
:101A700022D0E07B3F273F060028306808D0294667
:101A800001F080FB30602946706807E00122E6E73C
:101A9000394601F077FB30603946706801F072FB1F
:101AA00070603946B06801F06DFBB06000200746F9
:101AB0000126144B144D0DE02946306801F062FBFD
:101AC00030602946706801F05DFB70602946B0689F
:101AD000E9E70BE01F542A5C215C8A4200D01E54C7
:101AE0002954401C0E28F5DB0120F8BD0020F8BD6C
:101AF00078050020DC030020F7FF7F3A0C0300206C
:101B00009A99193FFC030020EC03002010B5002037
:101B1000FFF7E0FA10BD08B5C100081A0090411E99
:101B2000009101D30846FAE708BD000006460024EC
:101B3000E0B2002101F0F6FA641C032CF8DD0B4D35
:101B4000AF0000240CE0FF2000F054FD2846FFF712
:101B5000E2FFFF2000F03CFD2846FFF7DCFF641C9D
:101B6000B442F0DB3846FFF7D6FFEAE7400D03004A
:101B700010B50349FEF704FB00F004F810BD0000A7
:101B8000DB0FC93F70B50446134E144D03E03146D8
:101B9000FEF7F6FA0446AC42F9D8114DAC4204DD2A
:101BA0003146FEF73EFB0446F8E70120C0070D4929
:101BB0000D4D8442204605D9FEF73BFB2946FEF732
:101BC000DFFA04E0FEF735FB2946FEF72EFB21463F
:101BD000FEF72FFB70BD0000DB0FC940DB0F49C0D3
:101BE000DB0F49407B81CF3E83F9A23FFEB5002742
:101BF0003D460024681CFEF7A3FB01900E49A80097
:101C00000E58601CFEF79CFB0090A10071580198D3
:101C1000FEF70FFB0099FEF70CFB0849FEF709FBE6
:101C20003946FEF7ADFA641C0746032CE9DB6D1C50
:101C3000032DDEDBFEBD0000840100208D976E3F8A
:101C400010B5FFF7D3FF0149086010BD78000020F0
:101C5000F8B50020012400F001F9384DA8426BD1FD
:101C6000FF2000F0FBF8A84266D12046022500F0D4
:101C7000FDF8334948600968FEF78EFB11D1002654
:101C80000024B70028466D1C00F0F0F82D49A20092
:101C9000C959641C8850032CF4DB761C032EEFDB3F
:101CA00000E00B2528466D1C00F0E0F8264C206073
:101CB00028466D1C00F0DAF86060284600F0D6F87F
:101CC000A060342000F0CAF8002203461146CC0080
:101CD00018462041C0B27F2800D90122491C04299E
:101CE000F5DB002A28D1194901200860184908604D
:101CF000322000F0B3F8174C2071322000F0AEF81B
:101D00001549000A0860332000F0A8F802460021B7
:101D1000CB00104618416054491C0429F8DB3420DC
:101D200000F09CF80D4A03460021CC0018462041E3
:101D30005054491C0429F8DBF8BD00000100AA1228
:101D40007800002084010020240400200C020020E0
:101D500098010020EC01002094010020CC0100201B
:101D6000F8B500F087F800F067F8002001242A4950
:101D700001F0C4FE294920460225096800F07EF8DA
:101D800000260024B7002648A100C0594158284623
:101D90006D1C00F073F8641C032CF4DB761C032E1E
:101DA000EFDB204C28466D1C216800F067F86E1CA4
:101DB0002846616800F062F83046A16800F05EF8DD
:101DC0001948006800281FD01948184C006821796C
:101DD00000020143322001F091FE2046FEF7B6F9E1
:101DE0000102E078090A00060143332001F086FE73
:101DF0001048FEF7ABF901020E48090AC078000648
:101E00000143342001F07AFE0349FF2001F076FE01
:101E100000F020F8F8BD00000100AA1278000020B0
:101E200084010020240400200C020020EC0100208A
:101E300094010020CC01002010B50548FEF7D2FB2C
:101E4000042803D0FEF7FEFB012010BD002010BDCA
:101E5000007C000810B5FEF7F5FB10BD02498000BC
:101E60004018006870470000007C000800B5FFF7CC
:101E7000F5FF00BD10B5FEF713FC10BD10B501F065
:101E80003DFE10BD30B52F4C2178814258D006213F
:101E90006218203AD27F6254491E0129F8DA207074
:101EA00029492848FFF74AF97F25002802D06570A4
:101EB000032030BD24492348C91DFFF73FF90028FE
:101EC00002D06570042030BD1F491E480E31FFF757
:101ED00035F9002802D06570012030BD1A49194833
:101EE0001531FFF72BF9002802D06570022030BDB4
:101EF000154914481C31FFF721F9002802D06570FC
:101F0000052030BD10490F482331FFF717F900288D
:101F100002D06570062030BD0B490A482A31FFF710
:101F20000DF9002802D06570072030BD064905482C
:101F30003131FFF703F9002802D06570082030BD69
:101F4000002030BD94000020CA3B0008F8B500F026
:101F500077F804005FD00125324F012C1ED138687C
:101F600000282FD03048056000203860FFF7F8FEC9
:101F7000FFF76EFE002002460C26034673432B4EED
:101F800000219B198E00491C9A510329FADB401C41
:101F90000328F1DB00F0D6F825490860254E022C15
:101FA00015D02549042C1FD0032C21D0072C00DB91
:101FB0003D60052C21D0062C22D0072C2CD0082CDB
:101FC0002DD020E000F0EEF8FEF76EFECEE71B49C4
:101FD0000868002806D0002008600221081A306036
:101FE0003D6013E00120F7E70F480D7105600AE03E
:101FF0000D4805600020087105E000F04DFE01E08D
:1020000000F03CFE30603868002804D030680028BA
:1020100001D105480560F8BD00F074FAF2E7FFF75A
:1020200075FDEFE78000002038000020D00400207C
:10203000580000203C0000200C0300200C0200206F
:1020400070B53748374C0068002864D0364B3748A5
:102050001A685100490881420BDA9D686D006D08CD
:10206000854206DA5D686D006D08854201DA002060
:102070002FE02F4DAA4202D89E68AE4206D95E6874
:1020800076007608864201DA012022E0294EB2422B
:1020900002DC9A68B24206DD5A6852005208824257
:1020A00001DA022015E05A68AA4208D9814206DA0C
:1020B0009D686D006D08854201DA032009E0B24297
:1020C00008DD814206DA996849004908814201DA4F
:1020D0000420206000F036F806CC083C914200D085
:1020E000E060E268801A144A90420FD9002904D1B6
:1020F000124A904201D90C2005E0114A904204D9BD
:102100007F2903D0FF20A06000E0A1606160A0688B
:10211000FFF7B8FE70BD7F20A0606060002070BD3A
:102120000000002084000020DC030020CDCC4C3EC9
:10213000333333BF3333333FA086010060AE0A0030
:1021400020A1070000B501F0ADFC00BD1CB52320A7
:1021500001214004FEF73EFB012069460871002082
:102160008871C8710320487104200924E406009096
:102170002046FEF7B6FA0821009169462046FEF790
:10218000B0FA1CBD1CB501208003009001206946F7
:10219000087100208871C8710920C006FEF7A1FAF5
:1021A00001201CBDF0B591B0FFF7CCFF0F900546A4
:1021B0000B900A9000208100574B0CAA5B58401CE2
:1021C00053500328F7DB8CE00A980A95281A0990E7
:1021D00001D10120099006226946432000F0B4F89D
:1021E000009801990002401800B2FEF7A9F8079084
:1021F000029803990002401800B2FEF7A1F8069079
:10220000049805990002401800B2FEF799F8434E71
:102210000890307800F088F920464149FDF780FFAA
:102220004048814201D9012100E000213068C20705
:10223000D20F914201D0401C306038480178090724
:10224000090F00260160B4000CAF06A839590059E7
:10225000FEF7ACF804D238593349FDF791FF3851F5
:1022600006A839590059FEF797F804D238592E4973
:10227000FDF7D7FF3851E0192C4900F0CDF9385956
:102280002B4940004008FDF77BFF014606AF385957
:1022900040004008FEF78AF806D2FFF753FF0B9084
:1022A0001E48012101600BE00998FEF754F821490E
:1022B00000F002FA024618483959201800F0BFF918
:1022C000761C032EBFDB7D24E400FFF73BFF401BA1
:1022D000A04203D20A20FFF71EFCF6E7FFF732FF09
:1022E00005460B982C1A1448844205D20F981349BE
:1022F000281A884200D267E70B98291A0E488142B3
:1023000007D20020044A01468300401CD150032814
:10231000FADB11B0F0BD000030040020B000002056
:1023200024F40000127A0000CDCCCC3D00004844DB
:102330000000C8420024F44880841E00C0E1E4008C
:1023400010B501F0CBF910BD13460A4610B5014691
:10235000682001F006FA012010BD10B50146682082
:1023600001F0E6F910BD0A4610B50146682001F0FB
:102370001FFA10BDF0B5494C494D87B02168286857
:10238000FDF74FFF286061686868FDF74AFF002489
:102390000A27FF436860A600A8593946FDF7C4FF25
:1023A000641CA851032CF6DB3E480024006804AFEF
:1023B00000903D48A60080590099FDF73AFF641C43
:1023C000B851032CF5DB394E049834682146FDF7EB
:1023D00030FFB168FDF729FF019001990498FDF7DE
:1023E00028FF2146FDF7CCFE074601990598FDF729
:1023F00020FF7168FDF7C4FE044621460598FDF7ED
:1024000018FF0199FDF711FFB06021460698FDF70E
:1024100010FF3946FDF709FF3060069A0146104665
:10242000FDF707FF2146FDF7ABFE70601C48FEF785
:1024300037FE1F491F4A4118914222D27F22D205FE
:10244000014600241046FDF731FF0090A700E9592E
:10245000FDF7EFFE641CE851032C01DA0098F5E764
:1024600010483F210906006800F038F907460024AB
:10247000A000295880193A4600F0E1F8641C032CAA
:10248000F6DBB1683068FEF703FD0B4C2060B168E5
:102490007068FEF7FDFC606007B0F0BD240400200A
:1024A0000C0400205400002018040020C800002064
:1024B000CCCCCCC03233730048040020F8B50025E2
:1024C0000D4F01F099F80024A6000A21B859C9431C
:1024D000FDF72AFF01460948094A301800F0AFF815
:1024E000641C032CF0DB7D20C000FFF714FB6D1C87
:1024F000642DE6DBF8BD00000C040020C8000020BD
:102500009A99593F10B50120FEF7E4FD10BD0EB5B4
:1025100000226B461A805A8001911A819A7269468C
:10252000FEF7ACFA0EBD000070B50646FFF70AFED6
:10253000194C21692061451A3046FDF70CFF1749F7
:10254000FDF777FE06460121204689070C3000F092
:1025500063F82846FDF7FFFE054630466168FDF743
:1025600060FE2946FDF765FE0D49FDF762FEE16854
:10257000FDF706FE0B49E060884205DDFF2000F014
:1025800039F87F20C00503E0FF2000F021F800208B
:102590006060002070BD00009C0000208988883D9C
:1025A0006F12833A48E1FA3E70B50D460446FFF7D4
:1025B000C9FD2146FDF7B4FD6C432009814203D9D2
:1025C0000F2000F017F870BD0F2000F001F870BD6B
:1025D00070B50446064DC00703D004212846FEF717
:1025E000CAF8A00703D508212846FEF7C4F870BD35
:1025F0000000004870B50446064DC00703D0042112
:102600002846FEF7B6F8A00703D508212846FEF7AE
:10261000B0F870BD0000004870B504460120C00746
:102620000D4645400E462068FDF7C0FE00D22660EC
:1026300028462168FDF7BAFE00D2256070BD70B54E
:1026400005460C467F2016461146C005FDF7E9FDFC
:102650002146FDF7EEFD044631462868FDF7E9FD09
:102660002146FDF78DFD286070BD0000F3B5104ECA
:10267000104F8C0083B031597869FDF7DAFD019075
:1026800030460C38055938692946FDF7D2FD0090CF
:10269000B9690398FDF7CDFD0099FDF771FD01992A
:1026A000FDF7BFFD314635510C39085105B0F0BD7D
:1026B0006C0500202801002010B5FDF7F7FD7F24F0
:1026C000E4052146FDF7B1FDA04201DD204610BD25
:1026D0000121C9078842FAD9002010BD10B5FDF7C5
:1026E000A8FD7F24E4052146FDF79FFDA04201DD02
:1026F000204610BD0121C9078842FAD9002010BD2B
:10270000F8B5164A09018C1805462768A168606863
:10271000FDF736FD0090E168FDF732FD01467F20B0
:10272000C005FDF7C3FD0099FDF783FD0646394658
:102730002846FDF776FD3146FDF77BFD3946FDF76E
:102740001FFD05467F203146C005FDF76AFD009953
:10275000FDF76FFD256060602846F8BD6404002029
:102760001CB57D20C000FFF7D6F9FEF7E9FDFFF7A5
:10277000EDFCFF20FFF73EFF01F03AF801F07CF995
:10278000CD48FFF7C8F9FFF7DBFD00F051FC002151
:10279000084600F0C7FC0021012000F0C3FC002126
:1027A000032000F0BFFC0021022000F0BBFC00F081
:1027B000F7FE00F0E5FE00282CD0FEF7A7FABF4890
:1027C00001218173FFF73CFAFFF742FA00F05AFD4E
:1027D000BB4D00240020FEF70FFB2968FDF7D0FC5D
:1027E00028607D20C000FFF796F9641C402CF1DBC7
:1027F0000521C9432868FDF797FD2860FFF7D2FC43
:1028000000F0ECFCFFF75AFEAE480068002803D049
:10281000072021E004201FE0FFF794FCA863FFF7E6
:1028200091FCA74C0546A06B281AFDF794FD606348
:10283000002802DC7F20C0056063A349FDF7F9FC96
:10284000A2496063884201DD062005E09D48A5633A
:102850000068142802DD0820FFF768F900F0CCFEBC
:10286000FEF772FDFFF786FD0020FEF7C5FA944CD7
:10287000A168FDF7DEFC06460120FEF7BDFA014621
:10288000934F20463A460830FFF7D9FE91483A4622
:10289000016820460C30FFF7D2FE20468E4A2430D5
:1028A0002168FFF7CCFE3A4631462046FFF7C7FEC7
:1028B0000121C943606AFDF737FD06468749206854
:1028C000FDF7B7FC3146FDF7ACFC0090E4688448A6
:1028D000844255DD7A4FB86A0646FDF731FD8049DE
:1028E000FDF7A7FC2146FDF7A4FC0099FDF748FC85
:1028F0007249B400703108510646386B002808D080
:10290000002030398200401C8E500C28FADB002059
:1029100038636A48734910300059FDF78AFC01900A
:102920006648403001593046FDF77BFC0199FDF7C0
:1029300027FC624940310E51303908510146FDF7FC
:1029400078FC5E4E0146A036A019674AFFF777FE75
:10295000B86A401CB8620C2812DB0020B8623068EC
:1029600000240190A700F0590199FDF715FD04D24C
:10297000F05901905248611CC162641C0C2CF1DBBF
:102980004F4F3869002800D055485849FDF7F8FBEB
:102990000646F86AFDF7D4FC514C2146FDF749FC88
:1029A000F968FDF746FC0099FDF7EAFB3146FDF7B3
:1029B000F3FC03D34E493868884201DA012000E075
:1029C00000203861F86AFDF7BBFC2146FDF731FCB9
:1029D000F968FDF72EFC0099FDF7D2FB78604548B9
:1029E0000068002801D0FFF7B1FA3869002801D04B
:1029F000082108E040480068002806D03F480068E9
:102A0000002804D00F213E481AE00C2117E00120D5
:102A100078612A48067AB869002814D0386A0028F4
:102A200002D1FFF78FFB3862FFF78CFB396A411A3E
:102A30003348814202D90020B861386208211E481B
:102A4000FFF7B2FD2BE0F86900281FD0FFF77AFBF3
:102A50000446386A002809D13C62002E03D0FF20CA
:102A6000FFF7B6FD02E0FF20FFF7C4FD386A211A28
:102A70002348814201D8386A04E0F869401EF861B1
:102A8000002038621F49201A884208D9002E03D03E
:102A9000FF20FFF7AFFD02E0FF20FFF799FDFEF7F3
:102AA00095FAFEF75DFB7D24E400FFF74BFB401B2E
:102AB000A042FAD3B3E60000A08601000C03002078
:102AC0002000002018020020BD3786350AD7A33C1D
:102AD000492E7F3F1C00002029EA7F3F0000A03FD5
:102AE000CDCCCC3D42F27C3F67B17F3FCDCC6C403A
:102AF000CDCC2C40000000209C010020B80100201B
:102B000020A10700E0930400FFB581B007460E4600
:102B100010460A9DFDF785FB044628460499FDF7FB
:102B200080FB054631463846FDF77BFB2946FDF71D
:102B300080FB2146FDF7BAFB0499FDF721FB05B0A8
:102B4000F0BD000010B506490868002807D0002035
:102B50000860091D08710920C006FDF7C2FD10BDFF
:102B600038020020F8B5194800260068184D0028E2
:102B70002AD0FFF7E7FA2968002907D0154A411A39
:102B8000914204D96968002902D013E02860F8BD99
:102B90001149FDF7C5FA114881420BD20024104FAC
:102BA0000126E0B2394600F0BDFA641C6E60032CC9
:102BB000F7DDF8BD0024E0B2002100F0B3FA641C98
:102BC0006E60032CF7DDF8BD2E60F8BDB801002063
:102BD0001C02002080C3C90180841E0048E8010057
:102BE000CDCC4C3EF3B50D011A4E0221AC1983B089
:102BF000C943E068FDF798FB0290A7680121C9432B
:102C00003846FDF791FB019001217059C943FDF74A
:102C10008BFB02210090C9430398FDF785FB0099C7
:102C2000FDF7AEFA0199FDF7FCFA0299FDF7F9FA02
:102C30003F210906FDF7FDFA0146E7606068A060E4
:102C400070596060039870510398FDF799FA05B0C8
:102C5000F0BD00005002002070B503468C00044D0A
:102C6000044A60191946FFF7EAFC285970BD0000B4
:102C7000AC02002040C2103F7047000005490868C0
:102C8000022804D001DA02200860401C70470020AE
:102C9000FAE70000280100200C494868002804D009
:102CA000012807D002280AD10BE008483830886094
:102CB000012003E005484430886002204860401C41
:102CC000704702482C3088600020F7E72801002078
:102CD00010B50649087C401C8007800F08613C3114
:102CE000095C252000F060FF10BD0000900100206D
:102CF00010B5416800788007800DFF38FF38023832
:102D00000818FDF71DFB0821C943FDF70DFB10BD99
:102D1000F0B506469E489F4902789F489F4F00683D
:102D2000B4008FB0002A03D0994AD27B002A11D078
:102D3000002803D03859FDF77CFA3851022E1ADAF0
:102D4000964918310859C207401CD20F0851002A71
:102D500007D010E00028EDD1914800680028E9D0A4
:102D6000ECE78E4831464830005900F0ABFD014693
:102D70008A480C3001518B480025015987483C3066
:102D80000059FDF709FB04D187480059002800DDF0
:102D90000125844801210059C90748407F493C3139
:102DA0000959FDF7F9FA06D17F4801590120C007FA
:102DB000814200D90125022E0BDA78480C300159E6
:102DC0003C300059FDF72DFA400078494008884210
:102DD00027DC002D25D171480221543005592846A1
:102DE000FDF7A2FA6D4960310959FDF7C9F96E493D
:102DF00009590091FDF7C4F96D49FDF71AFA6D49BB
:102E00000959FDF716FA6C490968FDF712FA3959A4
:102E1000FDF7B6F938516148603005510C3800991A
:102E2000015160480C3001595C482018FFF7F4FB51
:102E30006048183007595C4839460059FDF7F9F9E0
:102E40005C490C3909590091FDF7F3F9534D7F2185
:102E500001903C35C9053846FDF7E3F90099FDF7C7
:102E6000E8F9564909590391FDF7E3F90199FDF78E
:102E700087F94A490959FDF783F928514D480C3023
:102E800000590290002801DC285972E040480AA944
:102E9000C27B07A8002A06D0464A183A12590251A6
:102EA0003E4A303A05E03D4A483A125902513B4AFF
:102EB0003C3A12590A5100597F22D20500909042A3
:102EC00008590190014604AF104608DAFDF7A9F948
:102ED0000D903B4801990059400040080BE0FDF778
:102EE000A0F90D9000990198FDF7E0F901463448EA
:102EF000005940004008FDF79CF90D99FDF740F995
:102F000038512648243001590398FDF78AF902996F
:102F1000FDF78FF927493839C9690D91FDF789F90E
:102F20000E901E4830300159183002590192104657
:102F3000FDF777F90299FDF77CF90099FDF779F92A
:102F40003959FDF776F90D99FDF773F90E99FDF7EB
:102F500068F91249019A30310A51104A0399243212
:102F600011513146FFF782FB01462859FDF708F958
:102F7000285110493839C968FDF75BF928510948CB
:102F800001596019FFF748FB28590FB0F0BD000048
:102F90000C03002048E17A3F00000020F4040020E8
:102FA00060000020043C000890020020CDCCCC3D05
:102FB0007EAA2A3E60010020540000201804002050
:102FC0009C020020F8B5124801681248FDF76EF91E
:102FD000114C7F25E061ED05104E124881220095CD
:102FE0003346D2050E490068FFF78EFDE060B0421F
:102FF00001DDE66002E0A84200DAE5600A480078F8
:10300000002804D00949E068FDF713F9E060F8BD35
:103010005400002017B7513B28010020713DAA3F02
:1030200000004040200000200C0300206666663F40
:10303000FEB5022569460D710320487100248C718C
:10304000CC7101212846FDF7D1FB314F314839467B
:10305000FFF75DFA01210E023046FDF7C7FB394646
:103060002D4F3846FFF753FA2C486021018001218B
:10307000418084810682846010200924E406009047
:1030800069462046FDF72DFB042211462046FDF738
:1030900060FB22493846FDF739FC40200090694624
:1030A0002046FDF71EFB012206212046FDF751FBBD
:1030B0001A491848FDF72AFC8020009069462046EE
:1030C000FDF70FFB012207212046FDF742FB1349C4
:1030D0001048FDF759FC124C694620460095FDF753
:1030E00000FB012211462046FDF733FB0B4909483E
:1030F000FDF792FC01210748FDF7F2FB012105488D
:10310000FDF7F8FB01213846FDF7EAFBFEBD0000A4
:10311000CF0700000004004000200040B40500205C
:103120000004004810B50A46044612491046FDF74F
:1031300080F8FDF717F9002801DA002003E00E49B6
:10314000884200DD0846002C09D0012C0CD00B4928
:10315000022C0CD0032C01D180B2886310BD07492A
:1031600080B24031086010BD80B2054900E080B2F5
:10317000486310BD00E0F944CF07000000040040A0
:1031800000200040F8B506467F20C0050C4681426D
:1031900001DD044603E010498C4200D90C4621466B
:1031A0000746FDF73EF83146FDF743F80546314640
:1031B0000846FDF73EF83146FDF73BF82146FDF79E
:1031C00038F82946FCF7DCFF009039466846FFF7DF
:1031D00023FA0098F8BD0000000080BF704700008F
:1031E000FEB5254D254C2F68A66839463046FDF7BB
:1031F00020F8234909680091FDF71BF86168FDF785
:1032000014F839460190FDF714F80099FDF711F80C
:103210003146FCF7B5FF074668680290266801460C
:103220003046FDF706F80099FDF703F83946FCF73C
:10323000FCFFA0600299FCF7FCFF0099FCF7F9FF86
:103240003146FCF79DFFAD68064629460198FCF71C
:10325000F0FF0099FCF7EDFF3146FCF7E6FF294649
:103260002060FCF7E6FF0099FCF7E3FF0199FCF70B
:1032700087FF6060FEBD000018040020F4040020F9
:10328000540000207CB54348012585730021C1739B
:103290000221414800F020FC3F480721733000F034
:1032A0001BFC3D480621613000F016FC3A48042121
:1032B000343000F011FC6420FEF72DFC3648062166
:1032C000673000F009FC0021012000F06DFC0121B5
:1032D000022000F069FC3921062000F065FC0F2176
:1032E000112000F061FC0021042000F05DFC0321AE
:1032F000084600F059FCE22000F010FC00210520F7
:1033000000F052FC38211D2000F04EFC00F06AFA5B
:10331000FD2000F0ABFA002000F0A8FA00F05CFA03
:103320008F21002000F040FC0F2000F018FCC62880
:1033300002D00320FEF7FAFB174CA068002827D024
:1033400016486A4603C801910090012021465C316D
:103350000B18203BDB7F1354401C0628F8DB0621AA
:10336000104600F0B9FB3020694608700621684617
:1033700000F0B2FB084821693C30415C252000F098
:1033800013FCE5606068002801D0054820627CBD20
:10339000E5617CBD0C030020900100201C3C00086E
:1033A00088130000012040020921C90688610249F2
:1033B00001208860704700002402002001204002A4
:1033C0000921C906886103490881034900208860F2
:1033D000704700002000004824020020012003491B
:1033E00040020881024900208860704720000048A0
:1033F0002402002010B5074C2068002801D100F0FD
:10340000B1F8012080020921C906886101206060AD
:1034100010BD00002402002010B5064C20680028D2
:1034200001D100F09FF801200349800208810020AB
:10343000606010BD240200202000004870B590B0EC
:1034400000206C4681006050401C0F28FADB85206C
:1034500000902248224D06682248019629460068BD
:10346000FCF7E7FEFCF77EFF0104C0B2090E0490F2
:1034700003911D4829460068FCF7DBFEFCF772FF4C
:103480000104090EC0B2194D05910690686CC10F78
:1034900008184010FF2800DDFF200790002E03D001
:1034A0000398082108430390002108468200A2588F
:1034B000401C51180E28F9DBE1200E9100F02EFB84
:1034C0008221002000F070FB0F21684600F058FBBD
:1034D000FEF738FEA86410B070BD00003000002078
:1034E0000000C8422000002024000020900100209D
:1034F0001B48016801221143016001688907FCD55E
:10350000416889088900416041680907890FFBD13A
:103510000168012212069143016001688901FCD40F
:1035200041683F231B049943416041687B23DB03CF
:103530009943416041680723DB04194341600168F6
:103540001143016001688901FCD5416802221143E1
:10355000416041680907890F0229FAD170470000CC
:103560000010024010B50549012008600C310871B7
:103570000920C006FDF7B5F810BD000024020020A8
:1035800010B57520FEF7E9FE682807D0982805D009
:103590007D2803D0722801D0002010BD012010BD6D
:1035A00010B580216B20FEF7DEFE1248FEF7B3FA5D
:1035B00001216B20FEF7D7FE7520FEF7CEFE6828AE
:1035C00001D0012400E000246420FEF7A4FA1821B1
:1035D0001C20FEF7C8FE002C03D005211D20FEF79D
:1035E000C2FE18211B20FEF7BEFE00211A20FEF7A6
:1035F000BAFE10BD409C0000F0B593B00E226946A3
:103600003B20FEF7A1FE029803990002401800B289
:10361000FCF796FE2E4C206000980199000240189D
:1036200000B24042FCF78CFE6060049805990002ED
:10363000401800B2FCF784FEA060089809990002C7
:10364000401800B2FCF77CFE11900A980B9900021A
:10365000401800B2FCF774FE10900C980D9900020F
:10366000401800B2FCF76CFE1290243421681098C8
:10367000FCF7D7FD109061681198FCF7D2FD11900E
:10368000A1681298FCF7CDFD12900120109AC00796
:1036900011994240109111464140119112990C4FDD
:1036A0004140002410AE0C371291A5007059094911
:1036B000FCF7BFFD0849FCF7BCFD70512146FFF740
:1036C0001FF8641C7851032CEFDB13B0F0BD000031
:1036D0000C04002000007A3D35FA8E3CFEB5012630
:1036E000B60201246846009604718471C4710325F2
:1036F00009274571FF0669463846FCF7F2FF60026C
:10370000009069463846FCF7ECFF08480021066047
:1037100001718471C47145710C384160046081602D
:10372000FFF768FEFFF73EFEFEBD000030020020FE
:1037300070B50D460446FDF791FA60000446FDF7AA
:1037400069FA2846FDF766FAFDF756FA601CFDF7A0
:1037500061FA0120FDF716FAC4B2FDF791FA20468E
:1037600070BDFFB581B01D46164607460024FDF723
:1037700075FA78000746FDF74DFA0298FDF74AFA08
:10378000FDF73AFA781CFDF745FA6D1E05E00020BA
:10379000FDF7F8F9A1007050641CAC42F7DB012082
:1037A000FDF7F0F9A1007050FDF76AFA05B0F0BD21
:1037B00070B515460E460446FDF750FA6000FDF759
:1037C00029FA3046FDF726FA2846FDF723FAC4B257
:1037D000FDF756FA204670BD014901208861704707
:1037E0000014004801490120088170472014004856
:1037F000FEB501246846047100258571C471032655
:10380000467102200B4F009069463846FCF769FF6D
:10381000694638460094FCF764FF07480460057168
:103820008571C471467101460920C006FCF759FF35
:10383000BC61FEBD001400483C02002070B40020B2
:1038400007210223074C0925074EED06A36142001C
:10385000288A3381C007C00F1043491EF6D570BCBB
:10386000704700000014004820140048F8B50446D2
:103870000F4809260168F6060125002906D10560D2
:103880000C48057101463046FCF72BFF07210A4B17
:103890000A4F022022460A41D20701D0B56100E05A
:1038A0001D81B861064A1081491EF3D5F8BD00009C
:1038B000380200203C02002020000048001400488C
:1038C0002014004870B50C4AC9008C180546606881
:1038D0000A492060FCF7ADFC064609492846FCF77A
:1038E000A8FC3146FCF74CFC60602268014610469B
:1038F000FCF746FC70BD00009404002007715D3F9A
:10390000E23B8A3DF8B5474D044601682868FCF75C
:1039100043FD04D161686868FCF73EFD55D020681E
:1039200028606068404E686031466068FCF781FC42
:103930003E4F3946FCF77DFC054631462068FCF7D2
:1039400078FC3946FCF775FC0646FEF71BF9354C4A
:10395000083420602846FEF715F960602846FEF717
:1039600007F905463046FEF703F92946FCF761FCE6
:103970000646A06060680146FCF75BFC05462068CF
:103980000146FCF756FC2946FCF7FAFB2849054698
:1039900088420FDD31460846FCF74BFC7F21C90504
:1039A000FCF743FC01462846FCF780FCFCF7E8FEE8
:1039B000054600E01F4D20682946FCF73AFC2060D0
:1039C00029466068FCF735FC6060164C1A4E0834D6
:1039D000A068009070680099FCF72BFCB76805465A
:1039E00061683846FCF725FC2946FCF71AFC134DA4
:1039F000686030680099FCF71CFC06463846216870
:103A0000FCF717FC3146FCF70CFC7F24E40528602A
:103A100021462846FEF700FE2146281DFEF7FCFD44
:103A2000F8BD0000B40000200000704235FA8E3C62
:103A30006F12833AF4FD343FC80000203C0400209C
:103A4000F8B50A4C06466068094905462060FCF74F
:103A5000F0FB074607493046FCF7EBFB3946FCF71D
:103A60008FFB29466060FCF7DCFBF8BDF800002006
:103A7000E379673FF2BC733F10B5084806494161DE
:103A80000749CA6903231202120A44042243CA6185
:103A900000218161036110BDFF117A0000E000E0A8
:103AA00004ED00E00A48436980690A494A68904287
:103AB00001D2121A01E01B1A9A18486008681218FD
:103AC000D008C300D21A0A608A681018886070474C
:103AD00000E000E04402002070B50D460646FFF706
:103AE00081FE002404E0305DFFF7C0FE641CE4B2F8
:103AF000AC42F8D3FFF770FE70BD0000064A10B567
:103B000080008018FCF7A6FD042804D0FCF79AFD7D
:103B10000520FEF70BF810BD007C000810B5044628
:103B2000FFF760FE2046FFF7A1FEFFF755FE0020DD
:103B300010BD70B50D4606460024FFF753FE612008
:103B4000FFF794FEFEF7FEFF04E0FFF777FEA1000B
:103B50007050641CAC42F8DBFFF73EFE70BD10B540
:103B6000C406E40EFFF73EFE2046FFF77FFEFEF799
:103B7000E9FFFFF763FE0446FFF72EFE204610BD67
:103B800070B50D4606460024FFF72CFEA020FFF777
:103B90006DFE04E0A0003058FFF768FE641CAC42E4
:103BA000F8DBFFF719FE70BD70B58406A40E202067
:103BB0000D460443FFF716FE2046FFF757FE284642
:103BC000FFF754FEFFF708FE70BD0C010001000373
:103BD000000C0200020003000C0300030003000CB1
:103BE0000400040004000C0400030004000C0400A2
:103BF000030003000C0400030002000C0400030097
:103C0000010000009A99D93F9A99D93F0000003FDE
:103C10009A99D93F9A99D93F0000003F2A000000A5
:103C2000000000002A00000000000000503C0008D6
:103C3000000000205002000068040008F03C00086A
:103C40005002002078070000400B000805CFFFFF5E
:103C500032012904810510CDCCCC3D256666864015
:103C600043803FA92CC92061A92009122CA1033847
:103C700020C1A0097B14524185EB4141499C0910A8
:103C80000C01247AA0BC01241354012A2064880D5D
:103C900060F6803F9AEE813E342A7C3E7849042DBE
:103CA000F6285C3E0418086666863F3333B3143A40
:103CB000C0043CA4703D043808CDCC0C3F7B146E8E
:103CC000042D6666663F541A60041A6C04031E399C
:103CD000010312B80B05293EF6375D50083F0A6D07
:103CE000679C462A49060008463A4521EF2C5A505F
:04000005080000C926
:00000001FF
